{
	"contract/PriceConverter.sol": {
		"PriceConverter": {
			"abi": [
				{
					"inputs": [
						{
							"internalType": "uint256",
							"name": "ethAmount",
							"type": "uint256"
						}
					],
					"name": "getConversionRate",
					"outputs": [
						{
							"internalType": "uint256",
							"name": "",
							"type": "uint256"
						}
					],
					"stateMutability": "view",
					"type": "function"
				},
				{
					"inputs": [],
					"name": "getPrice",
					"outputs": [
						{
							"internalType": "uint256",
							"name": "",
							"type": "uint256"
						}
					],
					"stateMutability": "view",
					"type": "function"
				},
				{
					"inputs": [],
					"name": "getVersion",
					"outputs": [
						{
							"internalType": "uint256",
							"name": "",
							"type": "uint256"
						}
					],
					"stateMutability": "view",
					"type": "function"
				}
			],
			"devdoc": {
				"kind": "dev",
				"methods": {},
				"version": 1
			},
			"evm": {
				"assembly": "    /* \"contract/PriceConverter.sol\":293:1380  library PriceConverter {... */\n  dataSize(sub_0)\n  dataOffset(sub_0)\n  0x0b\n  dup3\n  dup3\n  dup3\n  codecopy\n  dup1\n  mload\n  0x00\n  byte\n  0x73\n  eq\n  tag_1\n  jumpi\n  mstore(0x00, 0x4e487b7100000000000000000000000000000000000000000000000000000000)\n  mstore(0x04, 0x00)\n  revert(0x00, 0x24)\ntag_1:\n  mstore(0x00, address)\n  0x73\n  dup2\n  mstore8\n  dup3\n  dup2\n  return\nstop\n\nsub_0: assembly {\n        /* \"contract/PriceConverter.sol\":293:1380  library PriceConverter {... */\n      eq(address, deployTimeAddress())\n      mstore(0x40, 0x80)\n      jumpi(tag_1, lt(calldatasize, 0x04))\n      shr(0xe0, calldataload(0x00))\n      dup1\n      0x0d8e6e2c\n      eq\n      tag_2\n      jumpi\n      dup1\n      0x6e5b6b28\n      eq\n      tag_3\n      jumpi\n      dup1\n      0x98d5fdca\n      eq\n      tag_4\n      jumpi\n    tag_1:\n      0x00\n      dup1\n      revert\n        /* \"contract/PriceConverter.sol\":742:948  function getVersion() public view returns(uint256) {... */\n    tag_2:\n      tag_5\n      tag_6\n      jump\t// in\n    tag_5:\n      mload(0x40)\n      tag_7\n      swap2\n      swap1\n      tag_8\n      jump\t// in\n    tag_7:\n      mload(0x40)\n      dup1\n      swap2\n      sub\n      swap1\n      return\n        /* \"contract/PriceConverter.sol\":998:1377  function getConversionRate(uint256 ethAmount) public view returns(uint256) {... */\n    tag_3:\n      tag_9\n      0x04\n      dup1\n      calldatasize\n      sub\n      dup2\n      add\n      swap1\n      tag_10\n      swap2\n      swap1\n      tag_11\n      jump\t// in\n    tag_10:\n      tag_12\n      jump\t// in\n    tag_9:\n      mload(0x40)\n      tag_13\n      swap2\n      swap1\n      tag_8\n      jump\t// in\n    tag_13:\n      mload(0x40)\n      dup1\n      swap2\n      sub\n      swap1\n      return\n        /* \"contract/PriceConverter.sol\":366:734  function getPrice() public view returns(uint256) {... */\n    tag_4:\n      tag_14\n      tag_15\n      jump\t// in\n    tag_14:\n      mload(0x40)\n      tag_16\n      swap2\n      swap1\n      tag_8\n      jump\t// in\n    tag_16:\n      mload(0x40)\n      dup1\n      swap2\n      sub\n      swap1\n      return\n        /* \"contract/PriceConverter.sol\":742:948  function getVersion() public view returns(uint256) {... */\n    tag_6:\n        /* \"contract/PriceConverter.sol\":784:791  uint256 */\n      0x00\n        /* \"contract/PriceConverter.sol\":804:835  AggregatorV3Interface priceFeed */\n      dup1\n        /* \"contract/PriceConverter.sol\":860:902  0xD4a33860578De61DBAbDc8BFdb98FD742fA7028e */\n      0xd4a33860578de61dbabdc8bfdb98fd742fa7028e\n        /* \"contract/PriceConverter.sol\":804:903  AggregatorV3Interface priceFeed = AggregatorV3Interface(0xD4a33860578De61DBAbDc8BFdb98FD742fA7028e) */\n      swap1\n      pop\n        /* \"contract/PriceConverter.sol\":921:930  priceFeed */\n      dup1\n        /* \"contract/PriceConverter.sol\":921:938  priceFeed.version */\n      0xffffffffffffffffffffffffffffffffffffffff\n      and\n      0x54fd4d50\n        /* \"contract/PriceConverter.sol\":921:940  priceFeed.version() */\n      mload(0x40)\n      dup2\n      0xffffffff\n      and\n      0xe0\n      shl\n      dup2\n      mstore\n      0x04\n      add\n      0x20\n      mload(0x40)\n      dup1\n      dup4\n      sub\n      dup2\n      dup7\n      gas\n      staticcall\n      iszero\n      dup1\n      iszero\n      tag_19\n      jumpi\n      returndatasize\n      0x00\n      dup1\n      returndatacopy\n      revert(0x00, returndatasize)\n    tag_19:\n      pop\n      pop\n      pop\n      pop\n      mload(0x40)\n      returndatasize\n      not(0x1f)\n      0x1f\n      dup3\n      add\n      and\n      dup3\n      add\n      dup1\n      0x40\n      mstore\n      pop\n      dup2\n      add\n      swap1\n      tag_20\n      swap2\n      swap1\n      tag_21\n      jump\t// in\n    tag_20:\n        /* \"contract/PriceConverter.sol\":914:940  return priceFeed.version() */\n      swap2\n      pop\n      pop\n        /* \"contract/PriceConverter.sol\":742:948  function getVersion() public view returns(uint256) {... */\n      swap1\n      jump\t// out\n        /* \"contract/PriceConverter.sol\":998:1377  function getConversionRate(uint256 ethAmount) public view returns(uint256) {... */\n    tag_12:\n        /* \"contract/PriceConverter.sol\":1064:1071  uint256 */\n      0x00\n        /* \"contract/PriceConverter.sol\":1084:1100  uint256 ethPrice */\n      dup1\n        /* \"contract/PriceConverter.sol\":1103:1113  getPrice() */\n      tag_23\n        /* \"contract/PriceConverter.sol\":1103:1111  getPrice */\n      tag_15\n        /* \"contract/PriceConverter.sol\":1103:1113  getPrice() */\n      jump\t// in\n    tag_23:\n        /* \"contract/PriceConverter.sol\":1084:1113  uint256 ethPrice = getPrice() */\n      swap1\n      pop\n        /* \"contract/PriceConverter.sol\":1124:1146  uint256 ethAmountInUsd */\n      0x00\n        /* \"contract/PriceConverter.sol\":1170:1174  1e18 */\n      0x0de0b6b3a7640000\n        /* \"contract/PriceConverter.sol\":1159:1168  ethAmount */\n      dup5\n        /* \"contract/PriceConverter.sol\":1150:1158  ethPrice */\n      dup4\n        /* \"contract/PriceConverter.sol\":1150:1168  ethPrice*ethAmount */\n      tag_24\n      swap2\n      swap1\n      tag_25\n      jump\t// in\n    tag_24:\n        /* \"contract/PriceConverter.sol\":1149:1174  (ethPrice*ethAmount)/1e18 */\n      tag_26\n      swap2\n      swap1\n      tag_27\n      jump\t// in\n    tag_26:\n        /* \"contract/PriceConverter.sol\":1124:1174  uint256 ethAmountInUsd = (ethPrice*ethAmount)/1e18 */\n      swap1\n      pop\n        /* \"contract/PriceConverter.sol\":1355:1369  ethAmountInUsd */\n      dup1\n        /* \"contract/PriceConverter.sol\":1348:1369  return ethAmountInUsd */\n      swap3\n      pop\n      pop\n      pop\n        /* \"contract/PriceConverter.sol\":998:1377  function getConversionRate(uint256 ethAmount) public view returns(uint256) {... */\n      swap2\n      swap1\n      pop\n      jump\t// out\n        /* \"contract/PriceConverter.sol\":366:734  function getPrice() public view returns(uint256) {... */\n    tag_15:\n        /* \"contract/PriceConverter.sol\":406:413  uint256 */\n      0x00\n        /* \"contract/PriceConverter.sol\":508:539  AggregatorV3Interface priceFeed */\n      dup1\n        /* \"contract/PriceConverter.sol\":564:606  0xD4a33860578De61DBAbDc8BFdb98FD742fA7028e */\n      0xd4a33860578de61dbabdc8bfdb98fd742fa7028e\n        /* \"contract/PriceConverter.sol\":508:607  AggregatorV3Interface priceFeed = AggregatorV3Interface(0xD4a33860578De61DBAbDc8BFdb98FD742fA7028e) */\n      swap1\n      pop\n        /* \"contract/PriceConverter.sol\":621:633  int256 price */\n      0x00\n        /* \"contract/PriceConverter.sol\":640:649  priceFeed */\n      dup2\n        /* \"contract/PriceConverter.sol\":640:665  priceFeed.latestRoundData */\n      0xffffffffffffffffffffffffffffffffffffffff\n      and\n      0xfeaf968c\n        /* \"contract/PriceConverter.sol\":640:667  priceFeed.latestRoundData() */\n      mload(0x40)\n      dup2\n      0xffffffff\n      and\n      0xe0\n      shl\n      dup2\n      mstore\n      0x04\n      add\n      0xa0\n      mload(0x40)\n      dup1\n      dup4\n      sub\n      dup2\n      dup7\n      gas\n      staticcall\n      iszero\n      dup1\n      iszero\n      tag_30\n      jumpi\n      returndatasize\n      0x00\n      dup1\n      returndatacopy\n      revert(0x00, returndatasize)\n    tag_30:\n      pop\n      pop\n      pop\n      pop\n      mload(0x40)\n      returndatasize\n      not(0x1f)\n      0x1f\n      dup3\n      add\n      and\n      dup3\n      add\n      dup1\n      0x40\n      mstore\n      pop\n      dup2\n      add\n      swap1\n      tag_31\n      swap2\n      swap1\n      tag_32\n      jump\t// in\n    tag_31:\n        /* \"contract/PriceConverter.sol\":618:667  (, int256 price,,,) = priceFeed.latestRoundData() */\n      pop\n      pop\n      pop\n      swap2\n      pop\n      pop\n        /* \"contract/PriceConverter.sol\":721:725  1e10 */\n      0x02540be400\n        /* \"contract/PriceConverter.sol\":715:720  price */\n      dup2\n        /* \"contract/PriceConverter.sol\":715:725  price*1e10 */\n      tag_33\n      swap2\n      swap1\n      tag_34\n      jump\t// in\n    tag_33:\n        /* \"contract/PriceConverter.sol\":700:726  return uint256(price*1e10) */\n      swap3\n      pop\n      pop\n      pop\n        /* \"contract/PriceConverter.sol\":366:734  function getPrice() public view returns(uint256) {... */\n      swap1\n      jump\t// out\n        /* \"#utility.yul\":7:84   */\n    tag_35:\n        /* \"#utility.yul\":44:51   */\n      0x00\n        /* \"#utility.yul\":73:78   */\n      dup2\n        /* \"#utility.yul\":62:78   */\n      swap1\n      pop\n        /* \"#utility.yul\":7:84   */\n      swap2\n      swap1\n      pop\n      jump\t// out\n        /* \"#utility.yul\":90:216   */\n    tag_36:\n        /* \"#utility.yul\":185:209   */\n      tag_54\n        /* \"#utility.yul\":203:208   */\n      dup2\n        /* \"#utility.yul\":185:209   */\n      tag_35\n      jump\t// in\n    tag_54:\n        /* \"#utility.yul\":180:183   */\n      dup3\n        /* \"#utility.yul\":173:210   */\n      mstore\n        /* \"#utility.yul\":90:216   */\n      pop\n      pop\n      jump\t// out\n        /* \"#utility.yul\":222:460   */\n    tag_8:\n        /* \"#utility.yul\":323:327   */\n      0x00\n        /* \"#utility.yul\":361:363   */\n      0x20\n        /* \"#utility.yul\":350:359   */\n      dup3\n        /* \"#utility.yul\":346:364   */\n      add\n        /* \"#utility.yul\":338:364   */\n      swap1\n      pop\n        /* \"#utility.yul\":374:453   */\n      tag_56\n        /* \"#utility.yul\":450:451   */\n      0x00\n        /* \"#utility.yul\":439:448   */\n      dup4\n        /* \"#utility.yul\":435:452   */\n      add\n        /* \"#utility.yul\":426:432   */\n      dup5\n        /* \"#utility.yul\":374:453   */\n      tag_36\n      jump\t// in\n    tag_56:\n        /* \"#utility.yul\":222:460   */\n      swap3\n      swap2\n      pop\n      pop\n      jump\t// out\n        /* \"#utility.yul\":547:664   */\n    tag_38:\n        /* \"#utility.yul\":656:657   */\n      0x00\n        /* \"#utility.yul\":653:654   */\n      dup1\n        /* \"#utility.yul\":646:658   */\n      revert\n        /* \"#utility.yul\":793:915   */\n    tag_40:\n        /* \"#utility.yul\":866:890   */\n      tag_61\n        /* \"#utility.yul\":884:889   */\n      dup2\n        /* \"#utility.yul\":866:890   */\n      tag_35\n      jump\t// in\n    tag_61:\n        /* \"#utility.yul\":859:864   */\n      dup2\n        /* \"#utility.yul\":856:891   */\n      eq\n        /* \"#utility.yul\":846:909   */\n      tag_62\n      jumpi\n        /* \"#utility.yul\":905:906   */\n      0x00\n        /* \"#utility.yul\":902:903   */\n      dup1\n        /* \"#utility.yul\":895:907   */\n      revert\n        /* \"#utility.yul\":846:909   */\n    tag_62:\n        /* \"#utility.yul\":793:915   */\n      pop\n      jump\t// out\n        /* \"#utility.yul\":921:1060   */\n    tag_41:\n        /* \"#utility.yul\":967:972   */\n      0x00\n        /* \"#utility.yul\":1005:1011   */\n      dup2\n        /* \"#utility.yul\":992:1012   */\n      calldataload\n        /* \"#utility.yul\":983:1012   */\n      swap1\n      pop\n        /* \"#utility.yul\":1021:1054   */\n      tag_64\n        /* \"#utility.yul\":1048:1053   */\n      dup2\n        /* \"#utility.yul\":1021:1054   */\n      tag_40\n      jump\t// in\n    tag_64:\n        /* \"#utility.yul\":921:1060   */\n      swap3\n      swap2\n      pop\n      pop\n      jump\t// out\n        /* \"#utility.yul\":1066:1395   */\n    tag_11:\n        /* \"#utility.yul\":1125:1131   */\n      0x00\n        /* \"#utility.yul\":1174:1176   */\n      0x20\n        /* \"#utility.yul\":1162:1171   */\n      dup3\n        /* \"#utility.yul\":1153:1160   */\n      dup5\n        /* \"#utility.yul\":1149:1172   */\n      sub\n        /* \"#utility.yul\":1145:1177   */\n      slt\n        /* \"#utility.yul\":1142:1261   */\n      iszero\n      tag_66\n      jumpi\n        /* \"#utility.yul\":1180:1259   */\n      tag_67\n      tag_38\n      jump\t// in\n    tag_67:\n        /* \"#utility.yul\":1142:1261   */\n    tag_66:\n        /* \"#utility.yul\":1300:1301   */\n      0x00\n        /* \"#utility.yul\":1325:1378   */\n      tag_68\n        /* \"#utility.yul\":1370:1377   */\n      dup5\n        /* \"#utility.yul\":1361:1367   */\n      dup3\n        /* \"#utility.yul\":1350:1359   */\n      dup6\n        /* \"#utility.yul\":1346:1368   */\n      add\n        /* \"#utility.yul\":1325:1378   */\n      tag_41\n      jump\t// in\n    tag_68:\n        /* \"#utility.yul\":1315:1378   */\n      swap2\n      pop\n        /* \"#utility.yul\":1271:1388   */\n      pop\n        /* \"#utility.yul\":1066:1395   */\n      swap3\n      swap2\n      pop\n      pop\n      jump\t// out\n        /* \"#utility.yul\":1401:1544   */\n    tag_42:\n        /* \"#utility.yul\":1458:1463   */\n      0x00\n        /* \"#utility.yul\":1489:1495   */\n      dup2\n        /* \"#utility.yul\":1483:1496   */\n      mload\n        /* \"#utility.yul\":1474:1496   */\n      swap1\n      pop\n        /* \"#utility.yul\":1505:1538   */\n      tag_70\n        /* \"#utility.yul\":1532:1537   */\n      dup2\n        /* \"#utility.yul\":1505:1538   */\n      tag_40\n      jump\t// in\n    tag_70:\n        /* \"#utility.yul\":1401:1544   */\n      swap3\n      swap2\n      pop\n      pop\n      jump\t// out\n        /* \"#utility.yul\":1550:1901   */\n    tag_21:\n        /* \"#utility.yul\":1620:1626   */\n      0x00\n        /* \"#utility.yul\":1669:1671   */\n      0x20\n        /* \"#utility.yul\":1657:1666   */\n      dup3\n        /* \"#utility.yul\":1648:1655   */\n      dup5\n        /* \"#utility.yul\":1644:1667   */\n      sub\n        /* \"#utility.yul\":1640:1672   */\n      slt\n        /* \"#utility.yul\":1637:1756   */\n      iszero\n      tag_72\n      jumpi\n        /* \"#utility.yul\":1675:1754   */\n      tag_73\n      tag_38\n      jump\t// in\n    tag_73:\n        /* \"#utility.yul\":1637:1756   */\n    tag_72:\n        /* \"#utility.yul\":1795:1796   */\n      0x00\n        /* \"#utility.yul\":1820:1884   */\n      tag_74\n        /* \"#utility.yul\":1876:1883   */\n      dup5\n        /* \"#utility.yul\":1867:1873   */\n      dup3\n        /* \"#utility.yul\":1856:1865   */\n      dup6\n        /* \"#utility.yul\":1852:1874   */\n      add\n        /* \"#utility.yul\":1820:1884   */\n      tag_42\n      jump\t// in\n    tag_74:\n        /* \"#utility.yul\":1810:1884   */\n      swap2\n      pop\n        /* \"#utility.yul\":1766:1894   */\n      pop\n        /* \"#utility.yul\":1550:1901   */\n      swap3\n      swap2\n      pop\n      pop\n      jump\t// out\n        /* \"#utility.yul\":1907:2087   */\n    tag_43:\n        /* \"#utility.yul\":1955:2032   */\n      0x4e487b7100000000000000000000000000000000000000000000000000000000\n        /* \"#utility.yul\":1952:1953   */\n      0x00\n        /* \"#utility.yul\":1945:2033   */\n      mstore\n        /* \"#utility.yul\":2052:2056   */\n      0x11\n        /* \"#utility.yul\":2049:2050   */\n      0x04\n        /* \"#utility.yul\":2042:2057   */\n      mstore\n        /* \"#utility.yul\":2076:2080   */\n      0x24\n        /* \"#utility.yul\":2073:2074   */\n      0x00\n        /* \"#utility.yul\":2066:2081   */\n      revert\n        /* \"#utility.yul\":2093:2441   */\n    tag_25:\n        /* \"#utility.yul\":2133:2140   */\n      0x00\n        /* \"#utility.yul\":2156:2176   */\n      tag_77\n        /* \"#utility.yul\":2174:2175   */\n      dup3\n        /* \"#utility.yul\":2156:2176   */\n      tag_35\n      jump\t// in\n    tag_77:\n        /* \"#utility.yul\":2151:2176   */\n      swap2\n      pop\n        /* \"#utility.yul\":2190:2210   */\n      tag_78\n        /* \"#utility.yul\":2208:2209   */\n      dup4\n        /* \"#utility.yul\":2190:2210   */\n      tag_35\n      jump\t// in\n    tag_78:\n        /* \"#utility.yul\":2185:2210   */\n      swap3\n      pop\n        /* \"#utility.yul\":2378:2379   */\n      dup2\n        /* \"#utility.yul\":2310:2376   */\n      0xffffffffffffffffffffffffffffffffffffffffffffffffffffffffffffffff\n        /* \"#utility.yul\":2306:2380   */\n      div\n        /* \"#utility.yul\":2303:2304   */\n      dup4\n        /* \"#utility.yul\":2300:2381   */\n      gt\n        /* \"#utility.yul\":2295:2296   */\n      dup3\n        /* \"#utility.yul\":2288:2297   */\n      iszero\n        /* \"#utility.yul\":2281:2298   */\n      iszero\n        /* \"#utility.yul\":2277:2382   */\n      and\n        /* \"#utility.yul\":2274:2405   */\n      iszero\n      tag_79\n      jumpi\n        /* \"#utility.yul\":2385:2403   */\n      tag_80\n      tag_43\n      jump\t// in\n    tag_80:\n        /* \"#utility.yul\":2274:2405   */\n    tag_79:\n        /* \"#utility.yul\":2433:2434   */\n      dup3\n        /* \"#utility.yul\":2430:2431   */\n      dup3\n        /* \"#utility.yul\":2426:2435   */\n      mul\n        /* \"#utility.yul\":2415:2435   */\n      swap1\n      pop\n        /* \"#utility.yul\":2093:2441   */\n      swap3\n      swap2\n      pop\n      pop\n      jump\t// out\n        /* \"#utility.yul\":2447:2627   */\n    tag_44:\n        /* \"#utility.yul\":2495:2572   */\n      0x4e487b7100000000000000000000000000000000000000000000000000000000\n        /* \"#utility.yul\":2492:2493   */\n      0x00\n        /* \"#utility.yul\":2485:2573   */\n      mstore\n        /* \"#utility.yul\":2592:2596   */\n      0x12\n        /* \"#utility.yul\":2589:2590   */\n      0x04\n        /* \"#utility.yul\":2582:2597   */\n      mstore\n        /* \"#utility.yul\":2616:2620   */\n      0x24\n        /* \"#utility.yul\":2613:2614   */\n      0x00\n        /* \"#utility.yul\":2606:2621   */\n      revert\n        /* \"#utility.yul\":2633:2818   */\n    tag_27:\n        /* \"#utility.yul\":2673:2674   */\n      0x00\n        /* \"#utility.yul\":2690:2710   */\n      tag_83\n        /* \"#utility.yul\":2708:2709   */\n      dup3\n        /* \"#utility.yul\":2690:2710   */\n      tag_35\n      jump\t// in\n    tag_83:\n        /* \"#utility.yul\":2685:2710   */\n      swap2\n      pop\n        /* \"#utility.yul\":2724:2744   */\n      tag_84\n        /* \"#utility.yul\":2742:2743   */\n      dup4\n        /* \"#utility.yul\":2724:2744   */\n      tag_35\n      jump\t// in\n    tag_84:\n        /* \"#utility.yul\":2719:2744   */\n      swap3\n      pop\n        /* \"#utility.yul\":2763:2764   */\n      dup3\n        /* \"#utility.yul\":2753:2788   */\n      tag_85\n      jumpi\n        /* \"#utility.yul\":2768:2786   */\n      tag_86\n      tag_44\n      jump\t// in\n    tag_86:\n        /* \"#utility.yul\":2753:2788   */\n    tag_85:\n        /* \"#utility.yul\":2810:2811   */\n      dup3\n        /* \"#utility.yul\":2807:2808   */\n      dup3\n        /* \"#utility.yul\":2803:2812   */\n      div\n        /* \"#utility.yul\":2798:2812   */\n      swap1\n      pop\n        /* \"#utility.yul\":2633:2818   */\n      swap3\n      swap2\n      pop\n      pop\n      jump\t// out\n        /* \"#utility.yul\":2824:2929   */\n    tag_45:\n        /* \"#utility.yul\":2860:2867   */\n      0x00\n        /* \"#utility.yul\":2900:2922   */\n      0xffffffffffffffffffff\n        /* \"#utility.yul\":2893:2898   */\n      dup3\n        /* \"#utility.yul\":2889:2923   */\n      and\n        /* \"#utility.yul\":2878:2923   */\n      swap1\n      pop\n        /* \"#utility.yul\":2824:2929   */\n      swap2\n      swap1\n      pop\n      jump\t// out\n        /* \"#utility.yul\":2935:3055   */\n    tag_46:\n        /* \"#utility.yul\":3007:3030   */\n      tag_89\n        /* \"#utility.yul\":3024:3029   */\n      dup2\n        /* \"#utility.yul\":3007:3030   */\n      tag_45\n      jump\t// in\n    tag_89:\n        /* \"#utility.yul\":3000:3005   */\n      dup2\n        /* \"#utility.yul\":2997:3031   */\n      eq\n        /* \"#utility.yul\":2987:3049   */\n      tag_90\n      jumpi\n        /* \"#utility.yul\":3045:3046   */\n      0x00\n        /* \"#utility.yul\":3042:3043   */\n      dup1\n        /* \"#utility.yul\":3035:3047   */\n      revert\n        /* \"#utility.yul\":2987:3049   */\n    tag_90:\n        /* \"#utility.yul\":2935:3055   */\n      pop\n      jump\t// out\n        /* \"#utility.yul\":3061:3202   */\n    tag_47:\n        /* \"#utility.yul\":3117:3122   */\n      0x00\n        /* \"#utility.yul\":3148:3154   */\n      dup2\n        /* \"#utility.yul\":3142:3155   */\n      mload\n        /* \"#utility.yul\":3133:3155   */\n      swap1\n      pop\n        /* \"#utility.yul\":3164:3196   */\n      tag_92\n        /* \"#utility.yul\":3190:3195   */\n      dup2\n        /* \"#utility.yul\":3164:3196   */\n      tag_46\n      jump\t// in\n    tag_92:\n        /* \"#utility.yul\":3061:3202   */\n      swap3\n      swap2\n      pop\n      pop\n      jump\t// out\n        /* \"#utility.yul\":3208:3284   */\n    tag_48:\n        /* \"#utility.yul\":3244:3251   */\n      0x00\n        /* \"#utility.yul\":3273:3278   */\n      dup2\n        /* \"#utility.yul\":3262:3278   */\n      swap1\n      pop\n        /* \"#utility.yul\":3208:3284   */\n      swap2\n      swap1\n      pop\n      jump\t// out\n        /* \"#utility.yul\":3290:3410   */\n    tag_49:\n        /* \"#utility.yul\":3362:3385   */\n      tag_95\n        /* \"#utility.yul\":3379:3384   */\n      dup2\n        /* \"#utility.yul\":3362:3385   */\n      tag_48\n      jump\t// in\n    tag_95:\n        /* \"#utility.yul\":3355:3360   */\n      dup2\n        /* \"#utility.yul\":3352:3386   */\n      eq\n        /* \"#utility.yul\":3342:3404   */\n      tag_96\n      jumpi\n        /* \"#utility.yul\":3400:3401   */\n      0x00\n        /* \"#utility.yul\":3397:3398   */\n      dup1\n        /* \"#utility.yul\":3390:3402   */\n      revert\n        /* \"#utility.yul\":3342:3404   */\n    tag_96:\n        /* \"#utility.yul\":3290:3410   */\n      pop\n      jump\t// out\n        /* \"#utility.yul\":3416:3557   */\n    tag_50:\n        /* \"#utility.yul\":3472:3477   */\n      0x00\n        /* \"#utility.yul\":3503:3509   */\n      dup2\n        /* \"#utility.yul\":3497:3510   */\n      mload\n        /* \"#utility.yul\":3488:3510   */\n      swap1\n      pop\n        /* \"#utility.yul\":3519:3551   */\n      tag_98\n        /* \"#utility.yul\":3545:3550   */\n      dup2\n        /* \"#utility.yul\":3519:3551   */\n      tag_49\n      jump\t// in\n    tag_98:\n        /* \"#utility.yul\":3416:3557   */\n      swap3\n      swap2\n      pop\n      pop\n      jump\t// out\n        /* \"#utility.yul\":3563:4534   */\n    tag_32:\n        /* \"#utility.yul\":3666:3672   */\n      0x00\n        /* \"#utility.yul\":3674:3680   */\n      dup1\n        /* \"#utility.yul\":3682:3688   */\n      0x00\n        /* \"#utility.yul\":3690:3696   */\n      dup1\n        /* \"#utility.yul\":3698:3704   */\n      0x00\n        /* \"#utility.yul\":3747:3750   */\n      0xa0\n        /* \"#utility.yul\":3735:3744   */\n      dup7\n        /* \"#utility.yul\":3726:3733   */\n      dup9\n        /* \"#utility.yul\":3722:3745   */\n      sub\n        /* \"#utility.yul\":3718:3751   */\n      slt\n        /* \"#utility.yul\":3715:3835   */\n      iszero\n      tag_100\n      jumpi\n        /* \"#utility.yul\":3754:3833   */\n      tag_101\n      tag_38\n      jump\t// in\n    tag_101:\n        /* \"#utility.yul\":3715:3835   */\n    tag_100:\n        /* \"#utility.yul\":3874:3875   */\n      0x00\n        /* \"#utility.yul\":3899:3962   */\n      tag_102\n        /* \"#utility.yul\":3954:3961   */\n      dup9\n        /* \"#utility.yul\":3945:3951   */\n      dup3\n        /* \"#utility.yul\":3934:3943   */\n      dup10\n        /* \"#utility.yul\":3930:3952   */\n      add\n        /* \"#utility.yul\":3899:3962   */\n      tag_47\n      jump\t// in\n    tag_102:\n        /* \"#utility.yul\":3889:3962   */\n      swap6\n      pop\n        /* \"#utility.yul\":3845:3972   */\n      pop\n        /* \"#utility.yul\":4011:4013   */\n      0x20\n        /* \"#utility.yul\":4037:4100   */\n      tag_103\n        /* \"#utility.yul\":4092:4099   */\n      dup9\n        /* \"#utility.yul\":4083:4089   */\n      dup3\n        /* \"#utility.yul\":4072:4081   */\n      dup10\n        /* \"#utility.yul\":4068:4090   */\n      add\n        /* \"#utility.yul\":4037:4100   */\n      tag_50\n      jump\t// in\n    tag_103:\n        /* \"#utility.yul\":4027:4100   */\n      swap5\n      pop\n        /* \"#utility.yul\":3982:4110   */\n      pop\n        /* \"#utility.yul\":4149:4151   */\n      0x40\n        /* \"#utility.yul\":4175:4239   */\n      tag_104\n        /* \"#utility.yul\":4231:4238   */\n      dup9\n        /* \"#utility.yul\":4222:4228   */\n      dup3\n        /* \"#utility.yul\":4211:4220   */\n      dup10\n        /* \"#utility.yul\":4207:4229   */\n      add\n        /* \"#utility.yul\":4175:4239   */\n      tag_42\n      jump\t// in\n    tag_104:\n        /* \"#utility.yul\":4165:4239   */\n      swap4\n      pop\n        /* \"#utility.yul\":4120:4249   */\n      pop\n        /* \"#utility.yul\":4288:4290   */\n      0x60\n        /* \"#utility.yul\":4314:4378   */\n      tag_105\n        /* \"#utility.yul\":4370:4377   */\n      dup9\n        /* \"#utility.yul\":4361:4367   */\n      dup3\n        /* \"#utility.yul\":4350:4359   */\n      dup10\n        /* \"#utility.yul\":4346:4368   */\n      add\n        /* \"#utility.yul\":4314:4378   */\n      tag_42\n      jump\t// in\n    tag_105:\n        /* \"#utility.yul\":4304:4378   */\n      swap3\n      pop\n        /* \"#utility.yul\":4259:4388   */\n      pop\n        /* \"#utility.yul\":4427:4430   */\n      0x80\n        /* \"#utility.yul\":4454:4517   */\n      tag_106\n        /* \"#utility.yul\":4509:4516   */\n      dup9\n        /* \"#utility.yul\":4500:4506   */\n      dup3\n        /* \"#utility.yul\":4489:4498   */\n      dup10\n        /* \"#utility.yul\":4485:4507   */\n      add\n        /* \"#utility.yul\":4454:4517   */\n      tag_47\n      jump\t// in\n    tag_106:\n        /* \"#utility.yul\":4444:4517   */\n      swap2\n      pop\n        /* \"#utility.yul\":4398:4527   */\n      pop\n        /* \"#utility.yul\":3563:4534   */\n      swap3\n      swap6\n      pop\n      swap3\n      swap6\n      swap1\n      swap4\n      pop\n      jump\t// out\n        /* \"#utility.yul\":4540:5531   */\n    tag_34:\n        /* \"#utility.yul\":4579:4586   */\n      0x00\n        /* \"#utility.yul\":4602:4621   */\n      tag_108\n        /* \"#utility.yul\":4619:4620   */\n      dup3\n        /* \"#utility.yul\":4602:4621   */\n      tag_48\n      jump\t// in\n    tag_108:\n        /* \"#utility.yul\":4597:4621   */\n      swap2\n      pop\n        /* \"#utility.yul\":4635:4654   */\n      tag_109\n        /* \"#utility.yul\":4652:4653   */\n      dup4\n        /* \"#utility.yul\":4635:4654   */\n      tag_48\n      jump\t// in\n    tag_109:\n        /* \"#utility.yul\":4630:4654   */\n      swap3\n      pop\n        /* \"#utility.yul\":4836:4837   */\n      dup3\n        /* \"#utility.yul\":4768:4834   */\n      0x7fffffffffffffffffffffffffffffffffffffffffffffffffffffffffffffff\n        /* \"#utility.yul\":4764:4838   */\n      div\n        /* \"#utility.yul\":4761:4762   */\n      dup3\n        /* \"#utility.yul\":4758:4839   */\n      gt\n        /* \"#utility.yul\":4753:4754   */\n      0x00\n        /* \"#utility.yul\":4750:4751   */\n      dup5\n        /* \"#utility.yul\":4746:4755   */\n      sgt\n        /* \"#utility.yul\":4742:4743   */\n      0x00\n        /* \"#utility.yul\":4739:4740   */\n      dup5\n        /* \"#utility.yul\":4735:4744   */\n      sgt\n        /* \"#utility.yul\":4731:4756   */\n      and\n        /* \"#utility.yul\":4727:4840   */\n      and\n        /* \"#utility.yul\":4724:4863   */\n      iszero\n      tag_110\n      jumpi\n        /* \"#utility.yul\":4843:4861   */\n      tag_111\n      tag_43\n      jump\t// in\n    tag_111:\n        /* \"#utility.yul\":4724:4863   */\n    tag_110:\n        /* \"#utility.yul\":5047:5048   */\n      dup2\n        /* \"#utility.yul\":4979:5045   */\n      0x8000000000000000000000000000000000000000000000000000000000000000\n        /* \"#utility.yul\":4974:5049   */\n      sdiv\n        /* \"#utility.yul\":4971:4972   */\n      dup4\n        /* \"#utility.yul\":4967:5050   */\n      slt\n        /* \"#utility.yul\":4962:4963   */\n      0x00\n        /* \"#utility.yul\":4959:4960   */\n      dup5\n        /* \"#utility.yul\":4955:4964   */\n      slt\n        /* \"#utility.yul\":4951:4952   */\n      0x00\n        /* \"#utility.yul\":4948:4949   */\n      dup5\n        /* \"#utility.yul\":4944:4953   */\n      sgt\n        /* \"#utility.yul\":4940:4965   */\n      and\n        /* \"#utility.yul\":4936:5051   */\n      and\n        /* \"#utility.yul\":4933:5074   */\n      iszero\n      tag_112\n      jumpi\n        /* \"#utility.yul\":5054:5072   */\n      tag_113\n      tag_43\n      jump\t// in\n    tag_113:\n        /* \"#utility.yul\":4933:5074   */\n    tag_112:\n        /* \"#utility.yul\":5258:5259   */\n      dup3\n        /* \"#utility.yul\":5190:5256   */\n      0x8000000000000000000000000000000000000000000000000000000000000000\n        /* \"#utility.yul\":5185:5260   */\n      sdiv\n        /* \"#utility.yul\":5182:5183   */\n      dup3\n        /* \"#utility.yul\":5178:5261   */\n      slt\n        /* \"#utility.yul\":5173:5174   */\n      0x00\n        /* \"#utility.yul\":5170:5171   */\n      dup5\n        /* \"#utility.yul\":5166:5175   */\n      sgt\n        /* \"#utility.yul\":5162:5163   */\n      0x00\n        /* \"#utility.yul\":5159:5160   */\n      dup5\n        /* \"#utility.yul\":5155:5164   */\n      slt\n        /* \"#utility.yul\":5151:5176   */\n      and\n        /* \"#utility.yul\":5147:5262   */\n      and\n        /* \"#utility.yul\":5144:5285   */\n      iszero\n      tag_114\n      jumpi\n        /* \"#utility.yul\":5265:5283   */\n      tag_115\n      tag_43\n      jump\t// in\n    tag_115:\n        /* \"#utility.yul\":5144:5285   */\n    tag_114:\n        /* \"#utility.yul\":5468:5469   */\n      dup3\n        /* \"#utility.yul\":5400:5466   */\n      0x7fffffffffffffffffffffffffffffffffffffffffffffffffffffffffffffff\n        /* \"#utility.yul\":5395:5470   */\n      sdiv\n        /* \"#utility.yul\":5392:5393   */\n      dup3\n        /* \"#utility.yul\":5388:5471   */\n      slt\n        /* \"#utility.yul\":5383:5384   */\n      0x00\n        /* \"#utility.yul\":5380:5381   */\n      dup5\n        /* \"#utility.yul\":5376:5385   */\n      slt\n        /* \"#utility.yul\":5372:5373   */\n      0x00\n        /* \"#utility.yul\":5369:5370   */\n      dup5\n        /* \"#utility.yul\":5365:5374   */\n      slt\n        /* \"#utility.yul\":5361:5386   */\n      and\n        /* \"#utility.yul\":5357:5472   */\n      and\n        /* \"#utility.yul\":5354:5495   */\n      iszero\n      tag_116\n      jumpi\n        /* \"#utility.yul\":5475:5493   */\n      tag_117\n      tag_43\n      jump\t// in\n    tag_117:\n        /* \"#utility.yul\":5354:5495   */\n    tag_116:\n        /* \"#utility.yul\":5523:5524   */\n      dup3\n        /* \"#utility.yul\":5520:5521   */\n      dup3\n        /* \"#utility.yul\":5516:5525   */\n      mul\n        /* \"#utility.yul\":5505:5525   */\n      swap1\n      pop\n        /* \"#utility.yul\":4540:5531   */\n      swap3\n      swap2\n      pop\n      pop\n      jump\t// out\n\n    auxdata: 0xa2646970667358221220d3d4a2d7f77ab05de18c9afe1bfd64d6cf6406d9c63b6041b37f9fe9f2fece5164736f6c634300080a0033\n}\n",
				"bytecode": {
					"linkReferences": {},
					"object": "61062b610053600b82828239805160001a607314610046577f4e487b7100000000000000000000000000000000000000000000000000000000600052600060045260246000fd5b30600052607381538281f3fe730000000000000000000000000000000000000000301460806040526004361061004b5760003560e01c80630d8e6e2c146100505780636e5b6b281461006e57806398d5fdca1461009e575b600080fd5b6100586100bc565b6040516100659190610247565b60405180910390f35b61008860048036038101906100839190610293565b61014b565b6040516100959190610247565b60405180910390f35b6100a6610185565b6040516100b39190610247565b60405180910390f35b60008073d4a33860578de61dbabdc8bfdb98fd742fa7028e90508073ffffffffffffffffffffffffffffffffffffffff166354fd4d506040518163ffffffff1660e01b8152600401602060405180830381865afa158015610121573d6000803e3d6000fd5b505050506040513d601f19601f8201168201806040525081019061014591906102d5565b91505090565b600080610156610185565b90506000670de0b6b3a7640000848361016f9190610331565b61017991906103ba565b90508092505050919050565b60008073d4a33860578de61dbabdc8bfdb98fd742fa7028e905060008173ffffffffffffffffffffffffffffffffffffffff1663feaf968c6040518163ffffffff1660e01b815260040160a060405180830381865afa1580156101ec573d6000803e3d6000fd5b505050506040513d601f19601f820116820180604052508101906102109190610463565b5050509150506402540be4008161022791906104de565b9250505090565b6000819050919050565b6102418161022e565b82525050565b600060208201905061025c6000830184610238565b92915050565b600080fd5b6102708161022e565b811461027b57600080fd5b50565b60008135905061028d81610267565b92915050565b6000602082840312156102a9576102a8610262565b5b60006102b78482850161027e565b91505092915050565b6000815190506102cf81610267565b92915050565b6000602082840312156102eb576102ea610262565b5b60006102f9848285016102c0565b91505092915050565b7f4e487b7100000000000000000000000000000000000000000000000000000000600052601160045260246000fd5b600061033c8261022e565b91506103478361022e565b9250817fffffffffffffffffffffffffffffffffffffffffffffffffffffffffffffffff04831182151516156103805761037f610302565b5b828202905092915050565b7f4e487b7100000000000000000000000000000000000000000000000000000000600052601260045260246000fd5b60006103c58261022e565b91506103d08361022e565b9250826103e0576103df61038b565b5b828204905092915050565b600069ffffffffffffffffffff82169050919050565b61040a816103eb565b811461041557600080fd5b50565b60008151905061042781610401565b92915050565b6000819050919050565b6104408161042d565b811461044b57600080fd5b50565b60008151905061045d81610437565b92915050565b600080600080600060a0868803121561047f5761047e610262565b5b600061048d88828901610418565b955050602061049e8882890161044e565b94505060406104af888289016102c0565b93505060606104c0888289016102c0565b92505060806104d188828901610418565b9150509295509295909350565b60006104e98261042d565b91506104f48361042d565b9250827f7fffffffffffffffffffffffffffffffffffffffffffffffffffffffffffffff048211600084136000841316161561053357610532610302565b5b817f800000000000000000000000000000000000000000000000000000000000000005831260008412600084131616156105705761056f610302565b5b827f800000000000000000000000000000000000000000000000000000000000000005821260008413600084121616156105ad576105ac610302565b5b827f7fffffffffffffffffffffffffffffffffffffffffffffffffffffffffffffff05821260008412600084121616156105ea576105e9610302565b5b82820290509291505056fea2646970667358221220d3d4a2d7f77ab05de18c9afe1bfd64d6cf6406d9c63b6041b37f9fe9f2fece5164736f6c634300080a0033",
					"opcodes": "PUSH2 0x62B PUSH2 0x53 PUSH1 0xB DUP3 DUP3 DUP3 CODECOPY DUP1 MLOAD PUSH1 0x0 BYTE PUSH1 0x73 EQ PUSH2 0x46 JUMPI PUSH32 0x4E487B7100000000000000000000000000000000000000000000000000000000 PUSH1 0x0 MSTORE PUSH1 0x0 PUSH1 0x4 MSTORE PUSH1 0x24 PUSH1 0x0 REVERT JUMPDEST ADDRESS PUSH1 0x0 MSTORE PUSH1 0x73 DUP2 MSTORE8 DUP3 DUP2 RETURN INVALID PUSH20 0x0 ADDRESS EQ PUSH1 0x80 PUSH1 0x40 MSTORE PUSH1 0x4 CALLDATASIZE LT PUSH2 0x4B JUMPI PUSH1 0x0 CALLDATALOAD PUSH1 0xE0 SHR DUP1 PUSH4 0xD8E6E2C EQ PUSH2 0x50 JUMPI DUP1 PUSH4 0x6E5B6B28 EQ PUSH2 0x6E JUMPI DUP1 PUSH4 0x98D5FDCA EQ PUSH2 0x9E JUMPI JUMPDEST PUSH1 0x0 DUP1 REVERT JUMPDEST PUSH2 0x58 PUSH2 0xBC JUMP JUMPDEST PUSH1 0x40 MLOAD PUSH2 0x65 SWAP2 SWAP1 PUSH2 0x247 JUMP JUMPDEST PUSH1 0x40 MLOAD DUP1 SWAP2 SUB SWAP1 RETURN JUMPDEST PUSH2 0x88 PUSH1 0x4 DUP1 CALLDATASIZE SUB DUP2 ADD SWAP1 PUSH2 0x83 SWAP2 SWAP1 PUSH2 0x293 JUMP JUMPDEST PUSH2 0x14B JUMP JUMPDEST PUSH1 0x40 MLOAD PUSH2 0x95 SWAP2 SWAP1 PUSH2 0x247 JUMP JUMPDEST PUSH1 0x40 MLOAD DUP1 SWAP2 SUB SWAP1 RETURN JUMPDEST PUSH2 0xA6 PUSH2 0x185 JUMP JUMPDEST PUSH1 0x40 MLOAD PUSH2 0xB3 SWAP2 SWAP1 PUSH2 0x247 JUMP JUMPDEST PUSH1 0x40 MLOAD DUP1 SWAP2 SUB SWAP1 RETURN JUMPDEST PUSH1 0x0 DUP1 PUSH20 0xD4A33860578DE61DBABDC8BFDB98FD742FA7028E SWAP1 POP DUP1 PUSH20 0xFFFFFFFFFFFFFFFFFFFFFFFFFFFFFFFFFFFFFFFF AND PUSH4 0x54FD4D50 PUSH1 0x40 MLOAD DUP2 PUSH4 0xFFFFFFFF AND PUSH1 0xE0 SHL DUP2 MSTORE PUSH1 0x4 ADD PUSH1 0x20 PUSH1 0x40 MLOAD DUP1 DUP4 SUB DUP2 DUP7 GAS STATICCALL ISZERO DUP1 ISZERO PUSH2 0x121 JUMPI RETURNDATASIZE PUSH1 0x0 DUP1 RETURNDATACOPY RETURNDATASIZE PUSH1 0x0 REVERT JUMPDEST POP POP POP POP PUSH1 0x40 MLOAD RETURNDATASIZE PUSH1 0x1F NOT PUSH1 0x1F DUP3 ADD AND DUP3 ADD DUP1 PUSH1 0x40 MSTORE POP DUP2 ADD SWAP1 PUSH2 0x145 SWAP2 SWAP1 PUSH2 0x2D5 JUMP JUMPDEST SWAP2 POP POP SWAP1 JUMP JUMPDEST PUSH1 0x0 DUP1 PUSH2 0x156 PUSH2 0x185 JUMP JUMPDEST SWAP1 POP PUSH1 0x0 PUSH8 0xDE0B6B3A7640000 DUP5 DUP4 PUSH2 0x16F SWAP2 SWAP1 PUSH2 0x331 JUMP JUMPDEST PUSH2 0x179 SWAP2 SWAP1 PUSH2 0x3BA JUMP JUMPDEST SWAP1 POP DUP1 SWAP3 POP POP POP SWAP2 SWAP1 POP JUMP JUMPDEST PUSH1 0x0 DUP1 PUSH20 0xD4A33860578DE61DBABDC8BFDB98FD742FA7028E SWAP1 POP PUSH1 0x0 DUP2 PUSH20 0xFFFFFFFFFFFFFFFFFFFFFFFFFFFFFFFFFFFFFFFF AND PUSH4 0xFEAF968C PUSH1 0x40 MLOAD DUP2 PUSH4 0xFFFFFFFF AND PUSH1 0xE0 SHL DUP2 MSTORE PUSH1 0x4 ADD PUSH1 0xA0 PUSH1 0x40 MLOAD DUP1 DUP4 SUB DUP2 DUP7 GAS STATICCALL ISZERO DUP1 ISZERO PUSH2 0x1EC JUMPI RETURNDATASIZE PUSH1 0x0 DUP1 RETURNDATACOPY RETURNDATASIZE PUSH1 0x0 REVERT JUMPDEST POP POP POP POP PUSH1 0x40 MLOAD RETURNDATASIZE PUSH1 0x1F NOT PUSH1 0x1F DUP3 ADD AND DUP3 ADD DUP1 PUSH1 0x40 MSTORE POP DUP2 ADD SWAP1 PUSH2 0x210 SWAP2 SWAP1 PUSH2 0x463 JUMP JUMPDEST POP POP POP SWAP2 POP POP PUSH5 0x2540BE400 DUP2 PUSH2 0x227 SWAP2 SWAP1 PUSH2 0x4DE JUMP JUMPDEST SWAP3 POP POP POP SWAP1 JUMP JUMPDEST PUSH1 0x0 DUP2 SWAP1 POP SWAP2 SWAP1 POP JUMP JUMPDEST PUSH2 0x241 DUP2 PUSH2 0x22E JUMP JUMPDEST DUP3 MSTORE POP POP JUMP JUMPDEST PUSH1 0x0 PUSH1 0x20 DUP3 ADD SWAP1 POP PUSH2 0x25C PUSH1 0x0 DUP4 ADD DUP5 PUSH2 0x238 JUMP JUMPDEST SWAP3 SWAP2 POP POP JUMP JUMPDEST PUSH1 0x0 DUP1 REVERT JUMPDEST PUSH2 0x270 DUP2 PUSH2 0x22E JUMP JUMPDEST DUP2 EQ PUSH2 0x27B JUMPI PUSH1 0x0 DUP1 REVERT JUMPDEST POP JUMP JUMPDEST PUSH1 0x0 DUP2 CALLDATALOAD SWAP1 POP PUSH2 0x28D DUP2 PUSH2 0x267 JUMP JUMPDEST SWAP3 SWAP2 POP POP JUMP JUMPDEST PUSH1 0x0 PUSH1 0x20 DUP3 DUP5 SUB SLT ISZERO PUSH2 0x2A9 JUMPI PUSH2 0x2A8 PUSH2 0x262 JUMP JUMPDEST JUMPDEST PUSH1 0x0 PUSH2 0x2B7 DUP5 DUP3 DUP6 ADD PUSH2 0x27E JUMP JUMPDEST SWAP2 POP POP SWAP3 SWAP2 POP POP JUMP JUMPDEST PUSH1 0x0 DUP2 MLOAD SWAP1 POP PUSH2 0x2CF DUP2 PUSH2 0x267 JUMP JUMPDEST SWAP3 SWAP2 POP POP JUMP JUMPDEST PUSH1 0x0 PUSH1 0x20 DUP3 DUP5 SUB SLT ISZERO PUSH2 0x2EB JUMPI PUSH2 0x2EA PUSH2 0x262 JUMP JUMPDEST JUMPDEST PUSH1 0x0 PUSH2 0x2F9 DUP5 DUP3 DUP6 ADD PUSH2 0x2C0 JUMP JUMPDEST SWAP2 POP POP SWAP3 SWAP2 POP POP JUMP JUMPDEST PUSH32 0x4E487B7100000000000000000000000000000000000000000000000000000000 PUSH1 0x0 MSTORE PUSH1 0x11 PUSH1 0x4 MSTORE PUSH1 0x24 PUSH1 0x0 REVERT JUMPDEST PUSH1 0x0 PUSH2 0x33C DUP3 PUSH2 0x22E JUMP JUMPDEST SWAP2 POP PUSH2 0x347 DUP4 PUSH2 0x22E JUMP JUMPDEST SWAP3 POP DUP2 PUSH32 0xFFFFFFFFFFFFFFFFFFFFFFFFFFFFFFFFFFFFFFFFFFFFFFFFFFFFFFFFFFFFFFFF DIV DUP4 GT DUP3 ISZERO ISZERO AND ISZERO PUSH2 0x380 JUMPI PUSH2 0x37F PUSH2 0x302 JUMP JUMPDEST JUMPDEST DUP3 DUP3 MUL SWAP1 POP SWAP3 SWAP2 POP POP JUMP JUMPDEST PUSH32 0x4E487B7100000000000000000000000000000000000000000000000000000000 PUSH1 0x0 MSTORE PUSH1 0x12 PUSH1 0x4 MSTORE PUSH1 0x24 PUSH1 0x0 REVERT JUMPDEST PUSH1 0x0 PUSH2 0x3C5 DUP3 PUSH2 0x22E JUMP JUMPDEST SWAP2 POP PUSH2 0x3D0 DUP4 PUSH2 0x22E JUMP JUMPDEST SWAP3 POP DUP3 PUSH2 0x3E0 JUMPI PUSH2 0x3DF PUSH2 0x38B JUMP JUMPDEST JUMPDEST DUP3 DUP3 DIV SWAP1 POP SWAP3 SWAP2 POP POP JUMP JUMPDEST PUSH1 0x0 PUSH10 0xFFFFFFFFFFFFFFFFFFFF DUP3 AND SWAP1 POP SWAP2 SWAP1 POP JUMP JUMPDEST PUSH2 0x40A DUP2 PUSH2 0x3EB JUMP JUMPDEST DUP2 EQ PUSH2 0x415 JUMPI PUSH1 0x0 DUP1 REVERT JUMPDEST POP JUMP JUMPDEST PUSH1 0x0 DUP2 MLOAD SWAP1 POP PUSH2 0x427 DUP2 PUSH2 0x401 JUMP JUMPDEST SWAP3 SWAP2 POP POP JUMP JUMPDEST PUSH1 0x0 DUP2 SWAP1 POP SWAP2 SWAP1 POP JUMP JUMPDEST PUSH2 0x440 DUP2 PUSH2 0x42D JUMP JUMPDEST DUP2 EQ PUSH2 0x44B JUMPI PUSH1 0x0 DUP1 REVERT JUMPDEST POP JUMP JUMPDEST PUSH1 0x0 DUP2 MLOAD SWAP1 POP PUSH2 0x45D DUP2 PUSH2 0x437 JUMP JUMPDEST SWAP3 SWAP2 POP POP JUMP JUMPDEST PUSH1 0x0 DUP1 PUSH1 0x0 DUP1 PUSH1 0x0 PUSH1 0xA0 DUP7 DUP9 SUB SLT ISZERO PUSH2 0x47F JUMPI PUSH2 0x47E PUSH2 0x262 JUMP JUMPDEST JUMPDEST PUSH1 0x0 PUSH2 0x48D DUP9 DUP3 DUP10 ADD PUSH2 0x418 JUMP JUMPDEST SWAP6 POP POP PUSH1 0x20 PUSH2 0x49E DUP9 DUP3 DUP10 ADD PUSH2 0x44E JUMP JUMPDEST SWAP5 POP POP PUSH1 0x40 PUSH2 0x4AF DUP9 DUP3 DUP10 ADD PUSH2 0x2C0 JUMP JUMPDEST SWAP4 POP POP PUSH1 0x60 PUSH2 0x4C0 DUP9 DUP3 DUP10 ADD PUSH2 0x2C0 JUMP JUMPDEST SWAP3 POP POP PUSH1 0x80 PUSH2 0x4D1 DUP9 DUP3 DUP10 ADD PUSH2 0x418 JUMP JUMPDEST SWAP2 POP POP SWAP3 SWAP6 POP SWAP3 SWAP6 SWAP1 SWAP4 POP JUMP JUMPDEST PUSH1 0x0 PUSH2 0x4E9 DUP3 PUSH2 0x42D JUMP JUMPDEST SWAP2 POP PUSH2 0x4F4 DUP4 PUSH2 0x42D JUMP JUMPDEST SWAP3 POP DUP3 PUSH32 0x7FFFFFFFFFFFFFFFFFFFFFFFFFFFFFFFFFFFFFFFFFFFFFFFFFFFFFFFFFFFFFFF DIV DUP3 GT PUSH1 0x0 DUP5 SGT PUSH1 0x0 DUP5 SGT AND AND ISZERO PUSH2 0x533 JUMPI PUSH2 0x532 PUSH2 0x302 JUMP JUMPDEST JUMPDEST DUP2 PUSH32 0x8000000000000000000000000000000000000000000000000000000000000000 SDIV DUP4 SLT PUSH1 0x0 DUP5 SLT PUSH1 0x0 DUP5 SGT AND AND ISZERO PUSH2 0x570 JUMPI PUSH2 0x56F PUSH2 0x302 JUMP JUMPDEST JUMPDEST DUP3 PUSH32 0x8000000000000000000000000000000000000000000000000000000000000000 SDIV DUP3 SLT PUSH1 0x0 DUP5 SGT PUSH1 0x0 DUP5 SLT AND AND ISZERO PUSH2 0x5AD JUMPI PUSH2 0x5AC PUSH2 0x302 JUMP JUMPDEST JUMPDEST DUP3 PUSH32 0x7FFFFFFFFFFFFFFFFFFFFFFFFFFFFFFFFFFFFFFFFFFFFFFFFFFFFFFFFFFFFFFF SDIV DUP3 SLT PUSH1 0x0 DUP5 SLT PUSH1 0x0 DUP5 SLT AND AND ISZERO PUSH2 0x5EA JUMPI PUSH2 0x5E9 PUSH2 0x302 JUMP JUMPDEST JUMPDEST DUP3 DUP3 MUL SWAP1 POP SWAP3 SWAP2 POP POP JUMP INVALID LOG2 PUSH5 0x6970667358 0x22 SLT KECCAK256 0xD3 0xD4 LOG2 0xD7 0xF7 PUSH27 0xB05DE18C9AFE1BFD64D6CF6406D9C63B6041B37F9FE9F2FECE5164 PUSH20 0x6F6C634300080A00330000000000000000000000 "
				},
				"gasEstimates": {
					"creation": {
						"codeDepositCost": "315800",
						"executionCost": "380",
						"totalCost": "316180"
					},
					"external": {
						"getConversionRate(uint256)": "infinite",
						"getPrice()": "infinite",
						"getVersion()": "infinite"
					}
				},
				"methodIdentifiers": {
					"getConversionRate(uint256)": "6e5b6b28",
					"getPrice()": "98d5fdca",
					"getVersion()": "0d8e6e2c"
				}
			},
			"storageLayout": {
				"storage": [],
				"types": null
			},
			"userdoc": {
				"kind": "user",
				"methods": {},
				"version": 1
			}
		}
	}
}