{
	"contract/FundMe.sol": {
		"FundMe": {
			"abi": [
				{
					"inputs": [],
					"stateMutability": "nonpayable",
					"type": "constructor"
				},
				{
					"inputs": [
						{
							"internalType": "address",
							"name": "",
							"type": "address"
						}
					],
					"name": "addressToAmoundFunded",
					"outputs": [
						{
							"internalType": "uint256",
							"name": "",
							"type": "uint256"
						}
					],
					"stateMutability": "view",
					"type": "function"
				},
				{
					"inputs": [],
					"name": "fund",
					"outputs": [],
					"stateMutability": "payable",
					"type": "function"
				},
				{
					"inputs": [
						{
							"internalType": "uint256",
							"name": "",
							"type": "uint256"
						}
					],
					"name": "funders",
					"outputs": [
						{
							"internalType": "address",
							"name": "",
							"type": "address"
						}
					],
					"stateMutability": "view",
					"type": "function"
				},
				{
					"inputs": [],
					"name": "minUSD",
					"outputs": [
						{
							"internalType": "uint256",
							"name": "",
							"type": "uint256"
						}
					],
					"stateMutability": "view",
					"type": "function"
				},
				{
					"inputs": [],
					"name": "owner",
					"outputs": [
						{
							"internalType": "address",
							"name": "",
							"type": "address"
						}
					],
					"stateMutability": "view",
					"type": "function"
				},
				{
					"inputs": [],
					"name": "withdraw",
					"outputs": [],
					"stateMutability": "nonpayable",
					"type": "function"
				}
			],
			"devdoc": {
				"kind": "dev",
				"methods": {},
				"version": 1
			},
			"evm": {
				"assembly": "    /* \"contract/FundMe.sol\":188:2056  contract FundMe {... */\n  mstore(0x40, 0x80)\n    /* \"contract/FundMe.sol\":278:290  0.005*10**18 */\n  0x11c37937e08000\n    /* \"contract/FundMe.sol\":254:290  uint256 public minUSD = 0.005*10**18 */\n  0x00\n  sstore\n    /* \"contract/FundMe.sol\":424:475  constructor() {... */\n  callvalue\n  dup1\n  iszero\n  tag_1\n  jumpi\n  0x00\n  dup1\n  revert\ntag_1:\n  pop\n    /* \"contract/FundMe.sol\":457:467  msg.sender */\n  caller\n    /* \"contract/FundMe.sol\":449:454  owner */\n  0x03\n  0x00\n    /* \"contract/FundMe.sol\":449:467  owner = msg.sender */\n  0x0100\n  exp\n  dup2\n  sload\n  dup2\n  0xffffffffffffffffffffffffffffffffffffffff\n  mul\n  not\n  and\n  swap1\n  dup4\n  0xffffffffffffffffffffffffffffffffffffffff\n  and\n  mul\n  or\n  swap1\n  sstore\n  pop\n    /* \"contract/FundMe.sol\":188:2056  contract FundMe {... */\n  dataSize(sub_0)\n  dup1\n  dataOffset(sub_0)\n  0x00\n  codecopy\n  0x00\n  return\nstop\n\nsub_0: assembly {\n        /* \"contract/FundMe.sol\":188:2056  contract FundMe {... */\n      mstore(0x40, 0x80)\n      jumpi(tag_1, lt(calldatasize, 0x04))\n      shr(0xe0, calldataload(0x00))\n      dup1\n      0x3ccfd60b\n      eq\n      tag_2\n      jumpi\n      dup1\n      0x6a11f733\n      eq\n      tag_3\n      jumpi\n      dup1\n      0x8da5cb5b\n      eq\n      tag_4\n      jumpi\n      dup1\n      0xb60d4288\n      eq\n      tag_5\n      jumpi\n      dup1\n      0xdc0d3dff\n      eq\n      tag_6\n      jumpi\n      dup1\n      0xdc992aa0\n      eq\n      tag_7\n      jumpi\n    tag_1:\n      0x00\n      dup1\n      revert\n        /* \"contract/FundMe.sol\":1025:1870  function withdraw() public onlyOwner {... */\n    tag_2:\n      callvalue\n      dup1\n      iszero\n      tag_8\n      jumpi\n      0x00\n      dup1\n      revert\n    tag_8:\n      pop\n      tag_9\n      tag_10\n      jump\t// in\n    tag_9:\n      stop\n        /* \"contract/FundMe.sol\":330:386  mapping(address => uint256) public addressToAmoundFunded */\n    tag_3:\n      callvalue\n      dup1\n      iszero\n      tag_11\n      jumpi\n      0x00\n      dup1\n      revert\n    tag_11:\n      pop\n      tag_12\n      0x04\n      dup1\n      calldatasize\n      sub\n      dup2\n      add\n      swap1\n      tag_13\n      swap2\n      swap1\n      tag_14\n      jump\t// in\n    tag_13:\n      tag_15\n      jump\t// in\n    tag_12:\n      mload(0x40)\n      tag_16\n      swap2\n      swap1\n      tag_17\n      jump\t// in\n    tag_16:\n      mload(0x40)\n      dup1\n      swap2\n      sub\n      swap1\n      return\n        /* \"contract/FundMe.sol\":395:415  address public owner */\n    tag_4:\n      callvalue\n      dup1\n      iszero\n      tag_18\n      jumpi\n      0x00\n      dup1\n      revert\n    tag_18:\n      pop\n      tag_19\n      tag_20\n      jump\t// in\n    tag_19:\n      mload(0x40)\n      tag_21\n      swap2\n      swap1\n      tag_22\n      jump\t// in\n    tag_21:\n      mload(0x40)\n      dup1\n      swap2\n      sub\n      swap1\n      return\n        /* \"contract/FundMe.sol\":537:1017  function fund() public payable {... */\n    tag_5:\n      tag_23\n      tag_24\n      jump\t// in\n    tag_23:\n      stop\n        /* \"contract/FundMe.sol\":299:323  address[] public funders */\n    tag_6:\n      callvalue\n      dup1\n      iszero\n      tag_25\n      jumpi\n      0x00\n      dup1\n      revert\n    tag_25:\n      pop\n      tag_26\n      0x04\n      dup1\n      calldatasize\n      sub\n      dup2\n      add\n      swap1\n      tag_27\n      swap2\n      swap1\n      tag_28\n      jump\t// in\n    tag_27:\n      tag_29\n      jump\t// in\n    tag_26:\n      mload(0x40)\n      tag_30\n      swap2\n      swap1\n      tag_22\n      jump\t// in\n    tag_30:\n      mload(0x40)\n      dup1\n      swap2\n      sub\n      swap1\n      return\n        /* \"contract/FundMe.sol\":254:290  uint256 public minUSD = 0.005*10**18 */\n    tag_7:\n      callvalue\n      dup1\n      iszero\n      tag_31\n      jumpi\n      0x00\n      dup1\n      revert\n    tag_31:\n      pop\n      tag_32\n      tag_33\n      jump\t// in\n    tag_32:\n      mload(0x40)\n      tag_34\n      swap2\n      swap1\n      tag_17\n      jump\t// in\n    tag_34:\n      mload(0x40)\n      dup1\n      swap2\n      sub\n      swap1\n      return\n        /* \"contract/FundMe.sol\":1025:1870  function withdraw() public onlyOwner {... */\n    tag_10:\n        /* \"contract/FundMe.sol\":1960:1965  owner */\n      0x03\n      0x00\n      swap1\n      sload\n      swap1\n      0x0100\n      exp\n      swap1\n      div\n      0xffffffffffffffffffffffffffffffffffffffff\n      and\n        /* \"contract/FundMe.sol\":1946:1965  msg.sender == owner */\n      0xffffffffffffffffffffffffffffffffffffffff\n      and\n        /* \"contract/FundMe.sol\":1946:1956  msg.sender */\n      caller\n        /* \"contract/FundMe.sol\":1946:1965  msg.sender == owner */\n      0xffffffffffffffffffffffffffffffffffffffff\n      and\n      eq\n        /* \"contract/FundMe.sol\":1938:1989  require(msg.sender == owner, \"Sender is not owner\") */\n      tag_36\n      jumpi\n      mload(0x40)\n      0x08c379a000000000000000000000000000000000000000000000000000000000\n      dup2\n      mstore\n      0x04\n      add\n      tag_37\n      swap1\n      tag_38\n      jump\t// in\n    tag_37:\n      mload(0x40)\n      dup1\n      swap2\n      sub\n      swap1\n      revert\n    tag_36:\n        /* \"contract/FundMe.sol\":1167:1186  uint256 funderIndex */\n      0x00\n        /* \"contract/FundMe.sol\":1163:1349  for(uint256 funderIndex = 0; funderIndex < funders.length; funderIndex++) {... */\n    tag_40:\n        /* \"contract/FundMe.sol\":1206:1213  funders */\n      0x01\n        /* \"contract/FundMe.sol\":1206:1220  funders.length */\n      dup1\n      sload\n      swap1\n      pop\n        /* \"contract/FundMe.sol\":1192:1203  funderIndex */\n      dup2\n        /* \"contract/FundMe.sol\":1192:1220  funderIndex < funders.length */\n      lt\n        /* \"contract/FundMe.sol\":1163:1349  for(uint256 funderIndex = 0; funderIndex < funders.length; funderIndex++) {... */\n      iszero\n      tag_41\n      jumpi\n        /* \"contract/FundMe.sol\":1252:1266  address funder */\n      0x00\n        /* \"contract/FundMe.sol\":1269:1276  funders */\n      0x01\n        /* \"contract/FundMe.sol\":1277:1288  funderIndex */\n      dup3\n        /* \"contract/FundMe.sol\":1269:1289  funders[funderIndex] */\n      dup2\n      sload\n      dup2\n      lt\n      tag_43\n      jumpi\n      tag_44\n      tag_45\n      jump\t// in\n    tag_44:\n    tag_43:\n      swap1\n      0x00\n      mstore\n      keccak256(0x00, 0x20)\n      add\n      0x00\n      swap1\n      sload\n      swap1\n      0x0100\n      exp\n      swap1\n      div\n      0xffffffffffffffffffffffffffffffffffffffff\n      and\n        /* \"contract/FundMe.sol\":1252:1289  address funder = funders[funderIndex] */\n      swap1\n      pop\n        /* \"contract/FundMe.sol\":1336:1337  0 */\n      0x00\n        /* \"contract/FundMe.sol\":1304:1325  addressToAmoundFunded */\n      0x02\n        /* \"contract/FundMe.sol\":1304:1333  addressToAmoundFunded[funder] */\n      0x00\n        /* \"contract/FundMe.sol\":1326:1332  funder */\n      dup4\n        /* \"contract/FundMe.sol\":1304:1333  addressToAmoundFunded[funder] */\n      0xffffffffffffffffffffffffffffffffffffffff\n      and\n      0xffffffffffffffffffffffffffffffffffffffff\n      and\n      dup2\n      mstore\n      0x20\n      add\n      swap1\n      dup2\n      mstore\n      0x20\n      add\n      0x00\n      keccak256\n        /* \"contract/FundMe.sol\":1304:1337  addressToAmoundFunded[funder] = 0 */\n      dup2\n      swap1\n      sstore\n      pop\n        /* \"contract/FundMe.sol\":1237:1349  {... */\n      pop\n        /* \"contract/FundMe.sol\":1222:1235  funderIndex++ */\n      dup1\n      dup1\n      tag_47\n      swap1\n      tag_48\n      jump\t// in\n    tag_47:\n      swap2\n      pop\n      pop\n        /* \"contract/FundMe.sol\":1163:1349  for(uint256 funderIndex = 0; funderIndex < funders.length; funderIndex++) {... */\n      jump(tag_40)\n    tag_41:\n      pop\n        /* \"contract/FundMe.sol\":1416:1417  0 */\n      0x00\n        /* \"contract/FundMe.sol\":1402:1418  new address[](0) */\n      0xffffffffffffffff\n      dup2\n      gt\n      iszero\n      tag_49\n      jumpi\n      tag_50\n      tag_51\n      jump\t// in\n    tag_50:\n    tag_49:\n      mload(0x40)\n      swap1\n      dup1\n      dup3\n      mstore\n      dup1\n      0x20\n      mul\n      0x20\n      add\n      dup3\n      add\n      0x40\n      mstore\n      dup1\n      iszero\n      tag_52\n      jumpi\n      dup2\n      0x20\n      add\n      0x20\n      dup3\n      mul\n      dup1\n      calldatasize\n      dup4\n      calldatacopy\n      dup1\n      dup3\n      add\n      swap2\n      pop\n      pop\n      swap1\n      pop\n    tag_52:\n      pop\n        /* \"contract/FundMe.sol\":1392:1399  funders */\n      0x01\n        /* \"contract/FundMe.sol\":1392:1418  funders = new address[](0) */\n      swap1\n      dup1\n      mload\n      swap1\n      0x20\n      add\n      swap1\n      tag_53\n      swap3\n      swap2\n      swap1\n      tag_54\n      jump\t// in\n    tag_53:\n      pop\n        /* \"contract/FundMe.sol\":1735:1751  bool callSuccess */\n      0x00\n        /* \"contract/FundMe.sol\":1765:1775  msg.sender */\n      caller\n        /* \"contract/FundMe.sol\":1757:1781  payable(msg.sender).call */\n      0xffffffffffffffffffffffffffffffffffffffff\n      and\n        /* \"contract/FundMe.sol\":1790:1811  address(this).balance */\n      selfbalance\n        /* \"contract/FundMe.sol\":1757:1816  payable(msg.sender).call{value : address(this).balance}(\"\") */\n      mload(0x40)\n      tag_55\n      swap1\n      tag_56\n      jump\t// in\n    tag_55:\n      0x00\n      mload(0x40)\n      dup1\n      dup4\n      sub\n      dup2\n      dup6\n      dup8\n      gas\n      call\n      swap3\n      pop\n      pop\n      pop\n      returndatasize\n      dup1\n      0x00\n      dup2\n      eq\n      tag_59\n      jumpi\n      mload(0x40)\n      swap2\n      pop\n      and(add(returndatasize, 0x3f), not(0x1f))\n      dup3\n      add\n      0x40\n      mstore\n      returndatasize\n      dup3\n      mstore\n      returndatasize\n      0x00\n      0x20\n      dup5\n      add\n      returndatacopy\n      jump(tag_58)\n    tag_59:\n      0x60\n      swap2\n      pop\n    tag_58:\n      pop\n        /* \"contract/FundMe.sol\":1734:1816  (bool callSuccess, ) = payable(msg.sender).call{value : address(this).balance}(\"\") */\n      pop\n      swap1\n      pop\n        /* \"contract/FundMe.sol\":1835:1846  callSuccess */\n      dup1\n        /* \"contract/FundMe.sol\":1827:1862  require(callSuccess, \"Call Failed\") */\n      tag_60\n      jumpi\n      mload(0x40)\n      0x08c379a000000000000000000000000000000000000000000000000000000000\n      dup2\n      mstore\n      0x04\n      add\n      tag_61\n      swap1\n      tag_62\n      jump\t// in\n    tag_61:\n      mload(0x40)\n      dup1\n      swap2\n      sub\n      swap1\n      revert\n    tag_60:\n        /* \"contract/FundMe.sol\":1062:1870  {... */\n      pop\n        /* \"contract/FundMe.sol\":1025:1870  function withdraw() public onlyOwner {... */\n      jump\t// out\n        /* \"contract/FundMe.sol\":330:386  mapping(address => uint256) public addressToAmoundFunded */\n    tag_15:\n      mstore(0x20, 0x02)\n      dup1\n      0x00\n      mstore\n      keccak256(0x00, 0x40)\n      0x00\n      swap2\n      pop\n      swap1\n      pop\n      sload\n      dup2\n      jump\t// out\n        /* \"contract/FundMe.sol\":395:415  address public owner */\n    tag_20:\n      0x03\n      0x00\n      swap1\n      sload\n      swap1\n      0x0100\n      exp\n      swap1\n      div\n      0xffffffffffffffffffffffffffffffffffffffff\n      and\n      dup2\n      jump\t// out\n        /* \"contract/FundMe.sol\":537:1017  function fund() public payable {... */\n    tag_24:\n        /* \"contract/FundMe.sol\":893:899  minUSD */\n      sload(0x00)\n        /* \"contract/FundMe.sol\":860:869  msg.value */\n      callvalue\n        /* \"contract/FundMe.sol\":860:887  msg.value.getConversionRate */\n      linkerSymbol(\"e2bb0c0cfac88d79610ea5832c79f399999188f9eb34369ab516da475525f510\")\n      0x6e5b6b28\n      swap1\n      swap2\n        /* \"contract/FundMe.sol\":860:889  msg.value.getConversionRate() */\n      mload(0x40)\n      dup3\n      0xffffffff\n      and\n      0xe0\n      shl\n      dup2\n      mstore\n      0x04\n      add\n      tag_64\n      swap2\n      swap1\n      tag_65\n      jump\t// in\n    tag_64:\n      0x20\n      mload(0x40)\n      dup1\n      dup4\n      sub\n      dup2\n      dup7\n      gas\n      delegatecall\n      iszero\n      dup1\n      iszero\n      tag_67\n      jumpi\n      returndatasize\n      0x00\n      dup1\n      returndatacopy\n      revert(0x00, returndatasize)\n    tag_67:\n      pop\n      pop\n      pop\n      pop\n      mload(0x40)\n      returndatasize\n      not(0x1f)\n      0x1f\n      dup3\n      add\n      and\n      dup3\n      add\n      dup1\n      0x40\n      mstore\n      pop\n      dup2\n      add\n      swap1\n      tag_68\n      swap2\n      swap1\n      tag_69\n      jump\t// in\n    tag_68:\n        /* \"contract/FundMe.sol\":860:899  msg.value.getConversionRate() >= minUSD */\n      lt\n      iszero\n        /* \"contract/FundMe.sol\":852:918  require(msg.value.getConversionRate() >= minUSD, \"Not enough ETH\") */\n      tag_70\n      jumpi\n      mload(0x40)\n      0x08c379a000000000000000000000000000000000000000000000000000000000\n      dup2\n      mstore\n      0x04\n      add\n      tag_71\n      swap1\n      tag_72\n      jump\t// in\n    tag_71:\n      mload(0x40)\n      dup1\n      swap2\n      sub\n      swap1\n      revert\n    tag_70:\n        /* \"contract/FundMe.sol\":929:936  funders */\n      0x01\n        /* \"contract/FundMe.sol\":942:952  msg.sender */\n      caller\n        /* \"contract/FundMe.sol\":929:953  funders.push(msg.sender) */\n      swap1\n      dup1\n      0x01\n      dup2\n      sload\n      add\n      dup1\n      dup3\n      sstore\n      dup1\n      swap2\n      pop\n      pop\n      0x01\n      swap1\n      sub\n      swap1\n      0x00\n      mstore\n      keccak256(0x00, 0x20)\n      add\n      0x00\n      swap1\n      swap2\n      swap1\n      swap2\n      swap1\n      swap2\n      0x0100\n      exp\n      dup2\n      sload\n      dup2\n      0xffffffffffffffffffffffffffffffffffffffff\n      mul\n      not\n      and\n      swap1\n      dup4\n      0xffffffffffffffffffffffffffffffffffffffff\n      and\n      mul\n      or\n      swap1\n      sstore\n      pop\n        /* \"contract/FundMe.sol\":1000:1009  msg.value */\n      callvalue\n        /* \"contract/FundMe.sol\":964:985  addressToAmoundFunded */\n      0x02\n        /* \"contract/FundMe.sol\":964:997  addressToAmoundFunded[msg.sender] */\n      0x00\n        /* \"contract/FundMe.sol\":986:996  msg.sender */\n      caller\n        /* \"contract/FundMe.sol\":964:997  addressToAmoundFunded[msg.sender] */\n      0xffffffffffffffffffffffffffffffffffffffff\n      and\n      0xffffffffffffffffffffffffffffffffffffffff\n      and\n      dup2\n      mstore\n      0x20\n      add\n      swap1\n      dup2\n      mstore\n      0x20\n      add\n      0x00\n      keccak256\n        /* \"contract/FundMe.sol\":964:1009  addressToAmoundFunded[msg.sender] = msg.value */\n      dup2\n      swap1\n      sstore\n      pop\n        /* \"contract/FundMe.sol\":537:1017  function fund() public payable {... */\n      jump\t// out\n        /* \"contract/FundMe.sol\":299:323  address[] public funders */\n    tag_29:\n      0x01\n      dup2\n      dup2\n      sload\n      dup2\n      lt\n      tag_74\n      jumpi\n      0x00\n      dup1\n      revert\n    tag_74:\n      swap1\n      0x00\n      mstore\n      keccak256(0x00, 0x20)\n      add\n      0x00\n      swap2\n      pop\n      sload\n      swap1\n      0x0100\n      exp\n      swap1\n      div\n      0xffffffffffffffffffffffffffffffffffffffff\n      and\n      dup2\n      jump\t// out\n        /* \"contract/FundMe.sol\":254:290  uint256 public minUSD = 0.005*10**18 */\n    tag_33:\n      sload(0x00)\n      dup2\n      jump\t// out\n    tag_54:\n      dup3\n      dup1\n      sload\n      dup3\n      dup3\n      sstore\n      swap1\n      0x00\n      mstore\n      keccak256(0x00, 0x20)\n      swap1\n      dup2\n      add\n      swap3\n      dup3\n      iszero\n      tag_76\n      jumpi\n      swap2\n      0x20\n      mul\n      dup3\n      add\n    tag_77:\n      dup3\n      dup2\n      gt\n      iszero\n      tag_78\n      jumpi\n      dup3\n      mload\n      dup3\n      exp(0x0100, 0x00)\n      dup2\n      sload\n      dup2\n      0xffffffffffffffffffffffffffffffffffffffff\n      mul\n      not\n      and\n      swap1\n      dup4\n      0xffffffffffffffffffffffffffffffffffffffff\n      and\n      mul\n      or\n      swap1\n      sstore\n      pop\n      swap2\n      0x20\n      add\n      swap2\n      swap1\n      0x01\n      add\n      swap1\n      jump(tag_77)\n    tag_78:\n    tag_76:\n      pop\n      swap1\n      pop\n      tag_79\n      swap2\n      swap1\n      tag_80\n      jump\t// in\n    tag_79:\n      pop\n      swap1\n      jump\t// out\n    tag_80:\n    tag_81:\n      dup1\n      dup3\n      gt\n      iszero\n      tag_82\n      jumpi\n      0x00\n      dup2\n      0x00\n      swap1\n      sstore\n      pop\n      0x01\n      add\n      jump(tag_81)\n    tag_82:\n      pop\n      swap1\n      jump\t// out\n        /* \"#utility.yul\":88:205   */\n    tag_84:\n        /* \"#utility.yul\":197:198   */\n      0x00\n        /* \"#utility.yul\":194:195   */\n      dup1\n        /* \"#utility.yul\":187:199   */\n      revert\n        /* \"#utility.yul\":334:460   */\n    tag_86:\n        /* \"#utility.yul\":371:378   */\n      0x00\n        /* \"#utility.yul\":411:453   */\n      0xffffffffffffffffffffffffffffffffffffffff\n        /* \"#utility.yul\":404:409   */\n      dup3\n        /* \"#utility.yul\":400:454   */\n      and\n        /* \"#utility.yul\":389:454   */\n      swap1\n      pop\n        /* \"#utility.yul\":334:460   */\n      swap2\n      swap1\n      pop\n      jump\t// out\n        /* \"#utility.yul\":466:562   */\n    tag_87:\n        /* \"#utility.yul\":503:510   */\n      0x00\n        /* \"#utility.yul\":532:556   */\n      tag_114\n        /* \"#utility.yul\":550:555   */\n      dup3\n        /* \"#utility.yul\":532:556   */\n      tag_86\n      jump\t// in\n    tag_114:\n        /* \"#utility.yul\":521:556   */\n      swap1\n      pop\n        /* \"#utility.yul\":466:562   */\n      swap2\n      swap1\n      pop\n      jump\t// out\n        /* \"#utility.yul\":568:690   */\n    tag_88:\n        /* \"#utility.yul\":641:665   */\n      tag_116\n        /* \"#utility.yul\":659:664   */\n      dup2\n        /* \"#utility.yul\":641:665   */\n      tag_87\n      jump\t// in\n    tag_116:\n        /* \"#utility.yul\":634:639   */\n      dup2\n        /* \"#utility.yul\":631:666   */\n      eq\n        /* \"#utility.yul\":621:684   */\n      tag_117\n      jumpi\n        /* \"#utility.yul\":680:681   */\n      0x00\n        /* \"#utility.yul\":677:678   */\n      dup1\n        /* \"#utility.yul\":670:682   */\n      revert\n        /* \"#utility.yul\":621:684   */\n    tag_117:\n        /* \"#utility.yul\":568:690   */\n      pop\n      jump\t// out\n        /* \"#utility.yul\":696:835   */\n    tag_89:\n        /* \"#utility.yul\":742:747   */\n      0x00\n        /* \"#utility.yul\":780:786   */\n      dup2\n        /* \"#utility.yul\":767:787   */\n      calldataload\n        /* \"#utility.yul\":758:787   */\n      swap1\n      pop\n        /* \"#utility.yul\":796:829   */\n      tag_119\n        /* \"#utility.yul\":823:828   */\n      dup2\n        /* \"#utility.yul\":796:829   */\n      tag_88\n      jump\t// in\n    tag_119:\n        /* \"#utility.yul\":696:835   */\n      swap3\n      swap2\n      pop\n      pop\n      jump\t// out\n        /* \"#utility.yul\":841:1170   */\n    tag_14:\n        /* \"#utility.yul\":900:906   */\n      0x00\n        /* \"#utility.yul\":949:951   */\n      0x20\n        /* \"#utility.yul\":937:946   */\n      dup3\n        /* \"#utility.yul\":928:935   */\n      dup5\n        /* \"#utility.yul\":924:947   */\n      sub\n        /* \"#utility.yul\":920:952   */\n      slt\n        /* \"#utility.yul\":917:1036   */\n      iszero\n      tag_121\n      jumpi\n        /* \"#utility.yul\":955:1034   */\n      tag_122\n      tag_84\n      jump\t// in\n    tag_122:\n        /* \"#utility.yul\":917:1036   */\n    tag_121:\n        /* \"#utility.yul\":1075:1076   */\n      0x00\n        /* \"#utility.yul\":1100:1153   */\n      tag_123\n        /* \"#utility.yul\":1145:1152   */\n      dup5\n        /* \"#utility.yul\":1136:1142   */\n      dup3\n        /* \"#utility.yul\":1125:1134   */\n      dup6\n        /* \"#utility.yul\":1121:1143   */\n      add\n        /* \"#utility.yul\":1100:1153   */\n      tag_89\n      jump\t// in\n    tag_123:\n        /* \"#utility.yul\":1090:1153   */\n      swap2\n      pop\n        /* \"#utility.yul\":1046:1163   */\n      pop\n        /* \"#utility.yul\":841:1170   */\n      swap3\n      swap2\n      pop\n      pop\n      jump\t// out\n        /* \"#utility.yul\":1176:1253   */\n    tag_90:\n        /* \"#utility.yul\":1213:1220   */\n      0x00\n        /* \"#utility.yul\":1242:1247   */\n      dup2\n        /* \"#utility.yul\":1231:1247   */\n      swap1\n      pop\n        /* \"#utility.yul\":1176:1253   */\n      swap2\n      swap1\n      pop\n      jump\t// out\n        /* \"#utility.yul\":1259:1377   */\n    tag_91:\n        /* \"#utility.yul\":1346:1370   */\n      tag_126\n        /* \"#utility.yul\":1364:1369   */\n      dup2\n        /* \"#utility.yul\":1346:1370   */\n      tag_90\n      jump\t// in\n    tag_126:\n        /* \"#utility.yul\":1341:1344   */\n      dup3\n        /* \"#utility.yul\":1334:1371   */\n      mstore\n        /* \"#utility.yul\":1259:1377   */\n      pop\n      pop\n      jump\t// out\n        /* \"#utility.yul\":1383:1605   */\n    tag_17:\n        /* \"#utility.yul\":1476:1480   */\n      0x00\n        /* \"#utility.yul\":1514:1516   */\n      0x20\n        /* \"#utility.yul\":1503:1512   */\n      dup3\n        /* \"#utility.yul\":1499:1517   */\n      add\n        /* \"#utility.yul\":1491:1517   */\n      swap1\n      pop\n        /* \"#utility.yul\":1527:1598   */\n      tag_128\n        /* \"#utility.yul\":1595:1596   */\n      0x00\n        /* \"#utility.yul\":1584:1593   */\n      dup4\n        /* \"#utility.yul\":1580:1597   */\n      add\n        /* \"#utility.yul\":1571:1577   */\n      dup5\n        /* \"#utility.yul\":1527:1598   */\n      tag_91\n      jump\t// in\n    tag_128:\n        /* \"#utility.yul\":1383:1605   */\n      swap3\n      swap2\n      pop\n      pop\n      jump\t// out\n        /* \"#utility.yul\":1611:1729   */\n    tag_92:\n        /* \"#utility.yul\":1698:1722   */\n      tag_130\n        /* \"#utility.yul\":1716:1721   */\n      dup2\n        /* \"#utility.yul\":1698:1722   */\n      tag_87\n      jump\t// in\n    tag_130:\n        /* \"#utility.yul\":1693:1696   */\n      dup3\n        /* \"#utility.yul\":1686:1723   */\n      mstore\n        /* \"#utility.yul\":1611:1729   */\n      pop\n      pop\n      jump\t// out\n        /* \"#utility.yul\":1735:1957   */\n    tag_22:\n        /* \"#utility.yul\":1828:1832   */\n      0x00\n        /* \"#utility.yul\":1866:1868   */\n      0x20\n        /* \"#utility.yul\":1855:1864   */\n      dup3\n        /* \"#utility.yul\":1851:1869   */\n      add\n        /* \"#utility.yul\":1843:1869   */\n      swap1\n      pop\n        /* \"#utility.yul\":1879:1950   */\n      tag_132\n        /* \"#utility.yul\":1947:1948   */\n      0x00\n        /* \"#utility.yul\":1936:1945   */\n      dup4\n        /* \"#utility.yul\":1932:1949   */\n      add\n        /* \"#utility.yul\":1923:1929   */\n      dup5\n        /* \"#utility.yul\":1879:1950   */\n      tag_92\n      jump\t// in\n    tag_132:\n        /* \"#utility.yul\":1735:1957   */\n      swap3\n      swap2\n      pop\n      pop\n      jump\t// out\n        /* \"#utility.yul\":1963:2085   */\n    tag_93:\n        /* \"#utility.yul\":2036:2060   */\n      tag_134\n        /* \"#utility.yul\":2054:2059   */\n      dup2\n        /* \"#utility.yul\":2036:2060   */\n      tag_90\n      jump\t// in\n    tag_134:\n        /* \"#utility.yul\":2029:2034   */\n      dup2\n        /* \"#utility.yul\":2026:2061   */\n      eq\n        /* \"#utility.yul\":2016:2079   */\n      tag_135\n      jumpi\n        /* \"#utility.yul\":2075:2076   */\n      0x00\n        /* \"#utility.yul\":2072:2073   */\n      dup1\n        /* \"#utility.yul\":2065:2077   */\n      revert\n        /* \"#utility.yul\":2016:2079   */\n    tag_135:\n        /* \"#utility.yul\":1963:2085   */\n      pop\n      jump\t// out\n        /* \"#utility.yul\":2091:2230   */\n    tag_94:\n        /* \"#utility.yul\":2137:2142   */\n      0x00\n        /* \"#utility.yul\":2175:2181   */\n      dup2\n        /* \"#utility.yul\":2162:2182   */\n      calldataload\n        /* \"#utility.yul\":2153:2182   */\n      swap1\n      pop\n        /* \"#utility.yul\":2191:2224   */\n      tag_137\n        /* \"#utility.yul\":2218:2223   */\n      dup2\n        /* \"#utility.yul\":2191:2224   */\n      tag_93\n      jump\t// in\n    tag_137:\n        /* \"#utility.yul\":2091:2230   */\n      swap3\n      swap2\n      pop\n      pop\n      jump\t// out\n        /* \"#utility.yul\":2236:2565   */\n    tag_28:\n        /* \"#utility.yul\":2295:2301   */\n      0x00\n        /* \"#utility.yul\":2344:2346   */\n      0x20\n        /* \"#utility.yul\":2332:2341   */\n      dup3\n        /* \"#utility.yul\":2323:2330   */\n      dup5\n        /* \"#utility.yul\":2319:2342   */\n      sub\n        /* \"#utility.yul\":2315:2347   */\n      slt\n        /* \"#utility.yul\":2312:2431   */\n      iszero\n      tag_139\n      jumpi\n        /* \"#utility.yul\":2350:2429   */\n      tag_140\n      tag_84\n      jump\t// in\n    tag_140:\n        /* \"#utility.yul\":2312:2431   */\n    tag_139:\n        /* \"#utility.yul\":2470:2471   */\n      0x00\n        /* \"#utility.yul\":2495:2548   */\n      tag_141\n        /* \"#utility.yul\":2540:2547   */\n      dup5\n        /* \"#utility.yul\":2531:2537   */\n      dup3\n        /* \"#utility.yul\":2520:2529   */\n      dup6\n        /* \"#utility.yul\":2516:2538   */\n      add\n        /* \"#utility.yul\":2495:2548   */\n      tag_94\n      jump\t// in\n    tag_141:\n        /* \"#utility.yul\":2485:2548   */\n      swap2\n      pop\n        /* \"#utility.yul\":2441:2558   */\n      pop\n        /* \"#utility.yul\":2236:2565   */\n      swap3\n      swap2\n      pop\n      pop\n      jump\t// out\n        /* \"#utility.yul\":2571:2740   */\n    tag_95:\n        /* \"#utility.yul\":2655:2666   */\n      0x00\n        /* \"#utility.yul\":2689:2695   */\n      dup3\n        /* \"#utility.yul\":2684:2687   */\n      dup3\n        /* \"#utility.yul\":2677:2696   */\n      mstore\n        /* \"#utility.yul\":2729:2733   */\n      0x20\n        /* \"#utility.yul\":2724:2727   */\n      dup3\n        /* \"#utility.yul\":2720:2734   */\n      add\n        /* \"#utility.yul\":2705:2734   */\n      swap1\n      pop\n        /* \"#utility.yul\":2571:2740   */\n      swap3\n      swap2\n      pop\n      pop\n      jump\t// out\n        /* \"#utility.yul\":2746:2915   */\n    tag_96:\n        /* \"#utility.yul\":2886:2907   */\n      0x53656e646572206973206e6f74206f776e657200000000000000000000000000\n        /* \"#utility.yul\":2882:2883   */\n      0x00\n        /* \"#utility.yul\":2874:2880   */\n      dup3\n        /* \"#utility.yul\":2870:2884   */\n      add\n        /* \"#utility.yul\":2863:2908   */\n      mstore\n        /* \"#utility.yul\":2746:2915   */\n      pop\n      jump\t// out\n        /* \"#utility.yul\":2921:3287   */\n    tag_97:\n        /* \"#utility.yul\":3063:3066   */\n      0x00\n        /* \"#utility.yul\":3084:3151   */\n      tag_145\n        /* \"#utility.yul\":3148:3150   */\n      0x13\n        /* \"#utility.yul\":3143:3146   */\n      dup4\n        /* \"#utility.yul\":3084:3151   */\n      tag_95\n      jump\t// in\n    tag_145:\n        /* \"#utility.yul\":3077:3151   */\n      swap2\n      pop\n        /* \"#utility.yul\":3160:3253   */\n      tag_146\n        /* \"#utility.yul\":3249:3252   */\n      dup3\n        /* \"#utility.yul\":3160:3253   */\n      tag_96\n      jump\t// in\n    tag_146:\n        /* \"#utility.yul\":3278:3280   */\n      0x20\n        /* \"#utility.yul\":3273:3276   */\n      dup3\n        /* \"#utility.yul\":3269:3281   */\n      add\n        /* \"#utility.yul\":3262:3281   */\n      swap1\n      pop\n        /* \"#utility.yul\":2921:3287   */\n      swap2\n      swap1\n      pop\n      jump\t// out\n        /* \"#utility.yul\":3293:3712   */\n    tag_38:\n        /* \"#utility.yul\":3459:3463   */\n      0x00\n        /* \"#utility.yul\":3497:3499   */\n      0x20\n        /* \"#utility.yul\":3486:3495   */\n      dup3\n        /* \"#utility.yul\":3482:3500   */\n      add\n        /* \"#utility.yul\":3474:3500   */\n      swap1\n      pop\n        /* \"#utility.yul\":3546:3555   */\n      dup2\n        /* \"#utility.yul\":3540:3544   */\n      dup2\n        /* \"#utility.yul\":3536:3556   */\n      sub\n        /* \"#utility.yul\":3532:3533   */\n      0x00\n        /* \"#utility.yul\":3521:3530   */\n      dup4\n        /* \"#utility.yul\":3517:3534   */\n      add\n        /* \"#utility.yul\":3510:3557   */\n      mstore\n        /* \"#utility.yul\":3574:3705   */\n      tag_148\n        /* \"#utility.yul\":3700:3704   */\n      dup2\n        /* \"#utility.yul\":3574:3705   */\n      tag_97\n      jump\t// in\n    tag_148:\n        /* \"#utility.yul\":3566:3705   */\n      swap1\n      pop\n        /* \"#utility.yul\":3293:3712   */\n      swap2\n      swap1\n      pop\n      jump\t// out\n        /* \"#utility.yul\":3718:3898   */\n    tag_45:\n        /* \"#utility.yul\":3766:3843   */\n      0x4e487b7100000000000000000000000000000000000000000000000000000000\n        /* \"#utility.yul\":3763:3764   */\n      0x00\n        /* \"#utility.yul\":3756:3844   */\n      mstore\n        /* \"#utility.yul\":3863:3867   */\n      0x32\n        /* \"#utility.yul\":3860:3861   */\n      0x04\n        /* \"#utility.yul\":3853:3868   */\n      mstore\n        /* \"#utility.yul\":3887:3891   */\n      0x24\n        /* \"#utility.yul\":3884:3885   */\n      0x00\n        /* \"#utility.yul\":3877:3892   */\n      revert\n        /* \"#utility.yul\":3904:4084   */\n    tag_98:\n        /* \"#utility.yul\":3952:4029   */\n      0x4e487b7100000000000000000000000000000000000000000000000000000000\n        /* \"#utility.yul\":3949:3950   */\n      0x00\n        /* \"#utility.yul\":3942:4030   */\n      mstore\n        /* \"#utility.yul\":4049:4053   */\n      0x11\n        /* \"#utility.yul\":4046:4047   */\n      0x04\n        /* \"#utility.yul\":4039:4054   */\n      mstore\n        /* \"#utility.yul\":4073:4077   */\n      0x24\n        /* \"#utility.yul\":4070:4071   */\n      0x00\n        /* \"#utility.yul\":4063:4078   */\n      revert\n        /* \"#utility.yul\":4090:4323   */\n    tag_48:\n        /* \"#utility.yul\":4129:4132   */\n      0x00\n        /* \"#utility.yul\":4152:4176   */\n      tag_152\n        /* \"#utility.yul\":4170:4175   */\n      dup3\n        /* \"#utility.yul\":4152:4176   */\n      tag_90\n      jump\t// in\n    tag_152:\n        /* \"#utility.yul\":4143:4176   */\n      swap2\n      pop\n        /* \"#utility.yul\":4198:4264   */\n      0xffffffffffffffffffffffffffffffffffffffffffffffffffffffffffffffff\n        /* \"#utility.yul\":4191:4196   */\n      dup3\n        /* \"#utility.yul\":4188:4265   */\n      eq\n        /* \"#utility.yul\":4185:4288   */\n      iszero\n      tag_153\n      jumpi\n        /* \"#utility.yul\":4268:4286   */\n      tag_154\n      tag_98\n      jump\t// in\n    tag_154:\n        /* \"#utility.yul\":4185:4288   */\n    tag_153:\n        /* \"#utility.yul\":4315:4316   */\n      0x01\n        /* \"#utility.yul\":4308:4313   */\n      dup3\n        /* \"#utility.yul\":4304:4317   */\n      add\n        /* \"#utility.yul\":4297:4317   */\n      swap1\n      pop\n        /* \"#utility.yul\":4090:4323   */\n      swap2\n      swap1\n      pop\n      jump\t// out\n        /* \"#utility.yul\":4329:4509   */\n    tag_51:\n        /* \"#utility.yul\":4377:4454   */\n      0x4e487b7100000000000000000000000000000000000000000000000000000000\n        /* \"#utility.yul\":4374:4375   */\n      0x00\n        /* \"#utility.yul\":4367:4455   */\n      mstore\n        /* \"#utility.yul\":4474:4478   */\n      0x41\n        /* \"#utility.yul\":4471:4472   */\n      0x04\n        /* \"#utility.yul\":4464:4479   */\n      mstore\n        /* \"#utility.yul\":4498:4502   */\n      0x24\n        /* \"#utility.yul\":4495:4496   */\n      0x00\n        /* \"#utility.yul\":4488:4503   */\n      revert\n        /* \"#utility.yul\":4515:4662   */\n    tag_99:\n        /* \"#utility.yul\":4616:4627   */\n      0x00\n        /* \"#utility.yul\":4653:4656   */\n      dup2\n        /* \"#utility.yul\":4638:4656   */\n      swap1\n      pop\n        /* \"#utility.yul\":4515:4662   */\n      swap3\n      swap2\n      pop\n      pop\n      jump\t// out\n        /* \"#utility.yul\":4668:4782   */\n    tag_100:\n      pop\n      jump\t// out\n        /* \"#utility.yul\":4788:5186   */\n    tag_101:\n        /* \"#utility.yul\":4947:4950   */\n      0x00\n        /* \"#utility.yul\":4968:5051   */\n      tag_159\n        /* \"#utility.yul\":5049:5050   */\n      0x00\n        /* \"#utility.yul\":5044:5047   */\n      dup4\n        /* \"#utility.yul\":4968:5051   */\n      tag_99\n      jump\t// in\n    tag_159:\n        /* \"#utility.yul\":4961:5051   */\n      swap2\n      pop\n        /* \"#utility.yul\":5060:5153   */\n      tag_160\n        /* \"#utility.yul\":5149:5152   */\n      dup3\n        /* \"#utility.yul\":5060:5153   */\n      tag_100\n      jump\t// in\n    tag_160:\n        /* \"#utility.yul\":5178:5179   */\n      0x00\n        /* \"#utility.yul\":5173:5176   */\n      dup3\n        /* \"#utility.yul\":5169:5180   */\n      add\n        /* \"#utility.yul\":5162:5180   */\n      swap1\n      pop\n        /* \"#utility.yul\":4788:5186   */\n      swap2\n      swap1\n      pop\n      jump\t// out\n        /* \"#utility.yul\":5192:5571   */\n    tag_56:\n        /* \"#utility.yul\":5376:5379   */\n      0x00\n        /* \"#utility.yul\":5398:5545   */\n      tag_162\n        /* \"#utility.yul\":5541:5544   */\n      dup3\n        /* \"#utility.yul\":5398:5545   */\n      tag_101\n      jump\t// in\n    tag_162:\n        /* \"#utility.yul\":5391:5545   */\n      swap2\n      pop\n        /* \"#utility.yul\":5562:5565   */\n      dup2\n        /* \"#utility.yul\":5555:5565   */\n      swap1\n      pop\n        /* \"#utility.yul\":5192:5571   */\n      swap2\n      swap1\n      pop\n      jump\t// out\n        /* \"#utility.yul\":5577:5738   */\n    tag_102:\n        /* \"#utility.yul\":5717:5730   */\n      0x43616c6c204661696c6564000000000000000000000000000000000000000000\n        /* \"#utility.yul\":5713:5714   */\n      0x00\n        /* \"#utility.yul\":5705:5711   */\n      dup3\n        /* \"#utility.yul\":5701:5715   */\n      add\n        /* \"#utility.yul\":5694:5731   */\n      mstore\n        /* \"#utility.yul\":5577:5738   */\n      pop\n      jump\t// out\n        /* \"#utility.yul\":5744:6110   */\n    tag_103:\n        /* \"#utility.yul\":5886:5889   */\n      0x00\n        /* \"#utility.yul\":5907:5974   */\n      tag_165\n        /* \"#utility.yul\":5971:5973   */\n      0x0b\n        /* \"#utility.yul\":5966:5969   */\n      dup4\n        /* \"#utility.yul\":5907:5974   */\n      tag_95\n      jump\t// in\n    tag_165:\n        /* \"#utility.yul\":5900:5974   */\n      swap2\n      pop\n        /* \"#utility.yul\":5983:6076   */\n      tag_166\n        /* \"#utility.yul\":6072:6075   */\n      dup3\n        /* \"#utility.yul\":5983:6076   */\n      tag_102\n      jump\t// in\n    tag_166:\n        /* \"#utility.yul\":6101:6103   */\n      0x20\n        /* \"#utility.yul\":6096:6099   */\n      dup3\n        /* \"#utility.yul\":6092:6104   */\n      add\n        /* \"#utility.yul\":6085:6104   */\n      swap1\n      pop\n        /* \"#utility.yul\":5744:6110   */\n      swap2\n      swap1\n      pop\n      jump\t// out\n        /* \"#utility.yul\":6116:6535   */\n    tag_62:\n        /* \"#utility.yul\":6282:6286   */\n      0x00\n        /* \"#utility.yul\":6320:6322   */\n      0x20\n        /* \"#utility.yul\":6309:6318   */\n      dup3\n        /* \"#utility.yul\":6305:6323   */\n      add\n        /* \"#utility.yul\":6297:6323   */\n      swap1\n      pop\n        /* \"#utility.yul\":6369:6378   */\n      dup2\n        /* \"#utility.yul\":6363:6367   */\n      dup2\n        /* \"#utility.yul\":6359:6379   */\n      sub\n        /* \"#utility.yul\":6355:6356   */\n      0x00\n        /* \"#utility.yul\":6344:6353   */\n      dup4\n        /* \"#utility.yul\":6340:6357   */\n      add\n        /* \"#utility.yul\":6333:6380   */\n      mstore\n        /* \"#utility.yul\":6397:6528   */\n      tag_168\n        /* \"#utility.yul\":6523:6527   */\n      dup2\n        /* \"#utility.yul\":6397:6528   */\n      tag_103\n      jump\t// in\n    tag_168:\n        /* \"#utility.yul\":6389:6528   */\n      swap1\n      pop\n        /* \"#utility.yul\":6116:6535   */\n      swap2\n      swap1\n      pop\n      jump\t// out\n        /* \"#utility.yul\":6541:6667   */\n    tag_104:\n        /* \"#utility.yul\":6636:6660   */\n      tag_170\n        /* \"#utility.yul\":6654:6659   */\n      dup2\n        /* \"#utility.yul\":6636:6660   */\n      tag_90\n      jump\t// in\n    tag_170:\n        /* \"#utility.yul\":6631:6634   */\n      dup3\n        /* \"#utility.yul\":6624:6661   */\n      mstore\n        /* \"#utility.yul\":6541:6667   */\n      pop\n      pop\n      jump\t// out\n        /* \"#utility.yul\":6673:6911   */\n    tag_65:\n        /* \"#utility.yul\":6774:6778   */\n      0x00\n        /* \"#utility.yul\":6812:6814   */\n      0x20\n        /* \"#utility.yul\":6801:6810   */\n      dup3\n        /* \"#utility.yul\":6797:6815   */\n      add\n        /* \"#utility.yul\":6789:6815   */\n      swap1\n      pop\n        /* \"#utility.yul\":6825:6904   */\n      tag_172\n        /* \"#utility.yul\":6901:6902   */\n      0x00\n        /* \"#utility.yul\":6890:6899   */\n      dup4\n        /* \"#utility.yul\":6886:6903   */\n      add\n        /* \"#utility.yul\":6877:6883   */\n      dup5\n        /* \"#utility.yul\":6825:6904   */\n      tag_104\n      jump\t// in\n    tag_172:\n        /* \"#utility.yul\":6673:6911   */\n      swap3\n      swap2\n      pop\n      pop\n      jump\t// out\n        /* \"#utility.yul\":6917:7060   */\n    tag_105:\n        /* \"#utility.yul\":6974:6979   */\n      0x00\n        /* \"#utility.yul\":7005:7011   */\n      dup2\n        /* \"#utility.yul\":6999:7012   */\n      mload\n        /* \"#utility.yul\":6990:7012   */\n      swap1\n      pop\n        /* \"#utility.yul\":7021:7054   */\n      tag_174\n        /* \"#utility.yul\":7048:7053   */\n      dup2\n        /* \"#utility.yul\":7021:7054   */\n      tag_93\n      jump\t// in\n    tag_174:\n        /* \"#utility.yul\":6917:7060   */\n      swap3\n      swap2\n      pop\n      pop\n      jump\t// out\n        /* \"#utility.yul\":7066:7417   */\n    tag_69:\n        /* \"#utility.yul\":7136:7142   */\n      0x00\n        /* \"#utility.yul\":7185:7187   */\n      0x20\n        /* \"#utility.yul\":7173:7182   */\n      dup3\n        /* \"#utility.yul\":7164:7171   */\n      dup5\n        /* \"#utility.yul\":7160:7183   */\n      sub\n        /* \"#utility.yul\":7156:7188   */\n      slt\n        /* \"#utility.yul\":7153:7272   */\n      iszero\n      tag_176\n      jumpi\n        /* \"#utility.yul\":7191:7270   */\n      tag_177\n      tag_84\n      jump\t// in\n    tag_177:\n        /* \"#utility.yul\":7153:7272   */\n    tag_176:\n        /* \"#utility.yul\":7311:7312   */\n      0x00\n        /* \"#utility.yul\":7336:7400   */\n      tag_178\n        /* \"#utility.yul\":7392:7399   */\n      dup5\n        /* \"#utility.yul\":7383:7389   */\n      dup3\n        /* \"#utility.yul\":7372:7381   */\n      dup6\n        /* \"#utility.yul\":7368:7390   */\n      add\n        /* \"#utility.yul\":7336:7400   */\n      tag_105\n      jump\t// in\n    tag_178:\n        /* \"#utility.yul\":7326:7400   */\n      swap2\n      pop\n        /* \"#utility.yul\":7282:7410   */\n      pop\n        /* \"#utility.yul\":7066:7417   */\n      swap3\n      swap2\n      pop\n      pop\n      jump\t// out\n        /* \"#utility.yul\":7423:7587   */\n    tag_106:\n        /* \"#utility.yul\":7563:7579   */\n      0x4e6f7420656e6f75676820455448000000000000000000000000000000000000\n        /* \"#utility.yul\":7559:7560   */\n      0x00\n        /* \"#utility.yul\":7551:7557   */\n      dup3\n        /* \"#utility.yul\":7547:7561   */\n      add\n        /* \"#utility.yul\":7540:7580   */\n      mstore\n        /* \"#utility.yul\":7423:7587   */\n      pop\n      jump\t// out\n        /* \"#utility.yul\":7593:7959   */\n    tag_107:\n        /* \"#utility.yul\":7735:7738   */\n      0x00\n        /* \"#utility.yul\":7756:7823   */\n      tag_181\n        /* \"#utility.yul\":7820:7822   */\n      0x0e\n        /* \"#utility.yul\":7815:7818   */\n      dup4\n        /* \"#utility.yul\":7756:7823   */\n      tag_95\n      jump\t// in\n    tag_181:\n        /* \"#utility.yul\":7749:7823   */\n      swap2\n      pop\n        /* \"#utility.yul\":7832:7925   */\n      tag_182\n        /* \"#utility.yul\":7921:7924   */\n      dup3\n        /* \"#utility.yul\":7832:7925   */\n      tag_106\n      jump\t// in\n    tag_182:\n        /* \"#utility.yul\":7950:7952   */\n      0x20\n        /* \"#utility.yul\":7945:7948   */\n      dup3\n        /* \"#utility.yul\":7941:7953   */\n      add\n        /* \"#utility.yul\":7934:7953   */\n      swap1\n      pop\n        /* \"#utility.yul\":7593:7959   */\n      swap2\n      swap1\n      pop\n      jump\t// out\n        /* \"#utility.yul\":7965:8384   */\n    tag_72:\n        /* \"#utility.yul\":8131:8135   */\n      0x00\n        /* \"#utility.yul\":8169:8171   */\n      0x20\n        /* \"#utility.yul\":8158:8167   */\n      dup3\n        /* \"#utility.yul\":8154:8172   */\n      add\n        /* \"#utility.yul\":8146:8172   */\n      swap1\n      pop\n        /* \"#utility.yul\":8218:8227   */\n      dup2\n        /* \"#utility.yul\":8212:8216   */\n      dup2\n        /* \"#utility.yul\":8208:8228   */\n      sub\n        /* \"#utility.yul\":8204:8205   */\n      0x00\n        /* \"#utility.yul\":8193:8202   */\n      dup4\n        /* \"#utility.yul\":8189:8206   */\n      add\n        /* \"#utility.yul\":8182:8229   */\n      mstore\n        /* \"#utility.yul\":8246:8377   */\n      tag_184\n        /* \"#utility.yul\":8372:8376   */\n      dup2\n        /* \"#utility.yul\":8246:8377   */\n      tag_107\n      jump\t// in\n    tag_184:\n        /* \"#utility.yul\":8238:8377   */\n      swap1\n      pop\n        /* \"#utility.yul\":7965:8384   */\n      swap2\n      swap1\n      pop\n      jump\t// out\n\n    auxdata: 0xa2646970667358221220a533fa15783c866d94d52eda04cb3a5c0c10cf9af3812d896a1df9545fa3833664736f6c634300080a0033\n}\n",
				"bytecode": {
					"linkReferences": {
						"contract/PriceConverter.sol": {
							"PriceConverter": [
								{
									"length": 20,
									"start": 1095
								}
							]
						}
					},
					"object": "60806040526611c37937e0800060005534801561001b57600080fd5b5033600360006101000a81548173ffffffffffffffffffffffffffffffffffffffff021916908373ffffffffffffffffffffffffffffffffffffffff160217905550610a828061006c6000396000f3fe6080604052600436106100555760003560e01c80633ccfd60b1461005a5780636a11f733146100715780638da5cb5b146100ae578063b60d4288146100d9578063dc0d3dff146100e3578063dc992aa014610120575b600080fd5b34801561006657600080fd5b5061006f61014b565b005b34801561007d57600080fd5b506100986004803603810190610093919061068b565b610397565b6040516100a591906106d1565b60405180910390f35b3480156100ba57600080fd5b506100c36103af565b6040516100d091906106fb565b60405180910390f35b6100e16103d5565b005b3480156100ef57600080fd5b5061010a60048036038101906101059190610742565b61053c565b60405161011791906106fb565b60405180910390f35b34801561012c57600080fd5b5061013561057b565b60405161014291906106d1565b60405180910390f35b600360009054906101000a900473ffffffffffffffffffffffffffffffffffffffff1673ffffffffffffffffffffffffffffffffffffffff163373ffffffffffffffffffffffffffffffffffffffff16146101db576040517f08c379a00000000000000000000000000000000000000000000000000000000081526004016101d2906107cc565b60405180910390fd5b60005b60018054905081101561028757600060018281548110610201576102006107ec565b5b9060005260206000200160009054906101000a900473ffffffffffffffffffffffffffffffffffffffff1690506000600260008373ffffffffffffffffffffffffffffffffffffffff1673ffffffffffffffffffffffffffffffffffffffff1681526020019081526020016000208190555050808061027f9061084a565b9150506101de565b50600067ffffffffffffffff8111156102a3576102a2610893565b5b6040519080825280602002602001820160405280156102d15781602001602082028036833780820191505090505b50600190805190602001906102e7929190610581565b5060003373ffffffffffffffffffffffffffffffffffffffff164760405161030e906108f3565b60006040518083038185875af1925050503d806000811461034b576040519150601f19603f3d011682016040523d82523d6000602084013e610350565b606091505b5050905080610394576040517f08c379a000000000000000000000000000000000000000000000000000000000815260040161038b90610954565b60405180910390fd5b50565b60026020528060005260406000206000915090505481565b600360009054906101000a900473ffffffffffffffffffffffffffffffffffffffff1681565b6000543473__$e2bb0c0cfac88d79610ea5832c79f39999$__636e5b6b2890916040518263ffffffff1660e01b81526004016104119190610983565b602060405180830381865af415801561042e573d6000803e3d6000fd5b505050506040513d601f19601f8201168201806040525081019061045291906109b3565b1015610493576040517f08c379a000000000000000000000000000000000000000000000000000000000815260040161048a90610a2c565b60405180910390fd5b6001339080600181540180825580915050600190039060005260206000200160009091909190916101000a81548173ffffffffffffffffffffffffffffffffffffffff021916908373ffffffffffffffffffffffffffffffffffffffff16021790555034600260003373ffffffffffffffffffffffffffffffffffffffff1673ffffffffffffffffffffffffffffffffffffffff16815260200190815260200160002081905550565b6001818154811061054c57600080fd5b906000526020600020016000915054906101000a900473ffffffffffffffffffffffffffffffffffffffff1681565b60005481565b8280548282559060005260206000209081019282156105fa579160200282015b828111156105f95782518260006101000a81548173ffffffffffffffffffffffffffffffffffffffff021916908373ffffffffffffffffffffffffffffffffffffffff160217905550916020019190600101906105a1565b5b509050610607919061060b565b5090565b5b8082111561062457600081600090555060010161060c565b5090565b600080fd5b600073ffffffffffffffffffffffffffffffffffffffff82169050919050565b60006106588261062d565b9050919050565b6106688161064d565b811461067357600080fd5b50565b6000813590506106858161065f565b92915050565b6000602082840312156106a1576106a0610628565b5b60006106af84828501610676565b91505092915050565b6000819050919050565b6106cb816106b8565b82525050565b60006020820190506106e660008301846106c2565b92915050565b6106f58161064d565b82525050565b600060208201905061071060008301846106ec565b92915050565b61071f816106b8565b811461072a57600080fd5b50565b60008135905061073c81610716565b92915050565b60006020828403121561075857610757610628565b5b60006107668482850161072d565b91505092915050565b600082825260208201905092915050565b7f53656e646572206973206e6f74206f776e657200000000000000000000000000600082015250565b60006107b660138361076f565b91506107c182610780565b602082019050919050565b600060208201905081810360008301526107e5816107a9565b9050919050565b7f4e487b7100000000000000000000000000000000000000000000000000000000600052603260045260246000fd5b7f4e487b7100000000000000000000000000000000000000000000000000000000600052601160045260246000fd5b6000610855826106b8565b91507fffffffffffffffffffffffffffffffffffffffffffffffffffffffffffffffff8214156108885761088761081b565b5b600182019050919050565b7f4e487b7100000000000000000000000000000000000000000000000000000000600052604160045260246000fd5b600081905092915050565b50565b60006108dd6000836108c2565b91506108e8826108cd565b600082019050919050565b60006108fe826108d0565b9150819050919050565b7f43616c6c204661696c6564000000000000000000000000000000000000000000600082015250565b600061093e600b8361076f565b915061094982610908565b602082019050919050565b6000602082019050818103600083015261096d81610931565b9050919050565b61097d816106b8565b82525050565b60006020820190506109986000830184610974565b92915050565b6000815190506109ad81610716565b92915050565b6000602082840312156109c9576109c8610628565b5b60006109d78482850161099e565b91505092915050565b7f4e6f7420656e6f75676820455448000000000000000000000000000000000000600082015250565b6000610a16600e8361076f565b9150610a21826109e0565b602082019050919050565b60006020820190508181036000830152610a4581610a09565b905091905056fea2646970667358221220a533fa15783c866d94d52eda04cb3a5c0c10cf9af3812d896a1df9545fa3833664736f6c634300080a0033",
					"opcodes": "PUSH1 0x80 PUSH1 0x40 MSTORE PUSH7 0x11C37937E08000 PUSH1 0x0 SSTORE CALLVALUE DUP1 ISZERO PUSH2 0x1B JUMPI PUSH1 0x0 DUP1 REVERT JUMPDEST POP CALLER PUSH1 0x3 PUSH1 0x0 PUSH2 0x100 EXP DUP2 SLOAD DUP2 PUSH20 0xFFFFFFFFFFFFFFFFFFFFFFFFFFFFFFFFFFFFFFFF MUL NOT AND SWAP1 DUP4 PUSH20 0xFFFFFFFFFFFFFFFFFFFFFFFFFFFFFFFFFFFFFFFF AND MUL OR SWAP1 SSTORE POP PUSH2 0xA82 DUP1 PUSH2 0x6C PUSH1 0x0 CODECOPY PUSH1 0x0 RETURN INVALID PUSH1 0x80 PUSH1 0x40 MSTORE PUSH1 0x4 CALLDATASIZE LT PUSH2 0x55 JUMPI PUSH1 0x0 CALLDATALOAD PUSH1 0xE0 SHR DUP1 PUSH4 0x3CCFD60B EQ PUSH2 0x5A JUMPI DUP1 PUSH4 0x6A11F733 EQ PUSH2 0x71 JUMPI DUP1 PUSH4 0x8DA5CB5B EQ PUSH2 0xAE JUMPI DUP1 PUSH4 0xB60D4288 EQ PUSH2 0xD9 JUMPI DUP1 PUSH4 0xDC0D3DFF EQ PUSH2 0xE3 JUMPI DUP1 PUSH4 0xDC992AA0 EQ PUSH2 0x120 JUMPI JUMPDEST PUSH1 0x0 DUP1 REVERT JUMPDEST CALLVALUE DUP1 ISZERO PUSH2 0x66 JUMPI PUSH1 0x0 DUP1 REVERT JUMPDEST POP PUSH2 0x6F PUSH2 0x14B JUMP JUMPDEST STOP JUMPDEST CALLVALUE DUP1 ISZERO PUSH2 0x7D JUMPI PUSH1 0x0 DUP1 REVERT JUMPDEST POP PUSH2 0x98 PUSH1 0x4 DUP1 CALLDATASIZE SUB DUP2 ADD SWAP1 PUSH2 0x93 SWAP2 SWAP1 PUSH2 0x68B JUMP JUMPDEST PUSH2 0x397 JUMP JUMPDEST PUSH1 0x40 MLOAD PUSH2 0xA5 SWAP2 SWAP1 PUSH2 0x6D1 JUMP JUMPDEST PUSH1 0x40 MLOAD DUP1 SWAP2 SUB SWAP1 RETURN JUMPDEST CALLVALUE DUP1 ISZERO PUSH2 0xBA JUMPI PUSH1 0x0 DUP1 REVERT JUMPDEST POP PUSH2 0xC3 PUSH2 0x3AF JUMP JUMPDEST PUSH1 0x40 MLOAD PUSH2 0xD0 SWAP2 SWAP1 PUSH2 0x6FB JUMP JUMPDEST PUSH1 0x40 MLOAD DUP1 SWAP2 SUB SWAP1 RETURN JUMPDEST PUSH2 0xE1 PUSH2 0x3D5 JUMP JUMPDEST STOP JUMPDEST CALLVALUE DUP1 ISZERO PUSH2 0xEF JUMPI PUSH1 0x0 DUP1 REVERT JUMPDEST POP PUSH2 0x10A PUSH1 0x4 DUP1 CALLDATASIZE SUB DUP2 ADD SWAP1 PUSH2 0x105 SWAP2 SWAP1 PUSH2 0x742 JUMP JUMPDEST PUSH2 0x53C JUMP JUMPDEST PUSH1 0x40 MLOAD PUSH2 0x117 SWAP2 SWAP1 PUSH2 0x6FB JUMP JUMPDEST PUSH1 0x40 MLOAD DUP1 SWAP2 SUB SWAP1 RETURN JUMPDEST CALLVALUE DUP1 ISZERO PUSH2 0x12C JUMPI PUSH1 0x0 DUP1 REVERT JUMPDEST POP PUSH2 0x135 PUSH2 0x57B JUMP JUMPDEST PUSH1 0x40 MLOAD PUSH2 0x142 SWAP2 SWAP1 PUSH2 0x6D1 JUMP JUMPDEST PUSH1 0x40 MLOAD DUP1 SWAP2 SUB SWAP1 RETURN JUMPDEST PUSH1 0x3 PUSH1 0x0 SWAP1 SLOAD SWAP1 PUSH2 0x100 EXP SWAP1 DIV PUSH20 0xFFFFFFFFFFFFFFFFFFFFFFFFFFFFFFFFFFFFFFFF AND PUSH20 0xFFFFFFFFFFFFFFFFFFFFFFFFFFFFFFFFFFFFFFFF AND CALLER PUSH20 0xFFFFFFFFFFFFFFFFFFFFFFFFFFFFFFFFFFFFFFFF AND EQ PUSH2 0x1DB JUMPI PUSH1 0x40 MLOAD PUSH32 0x8C379A000000000000000000000000000000000000000000000000000000000 DUP2 MSTORE PUSH1 0x4 ADD PUSH2 0x1D2 SWAP1 PUSH2 0x7CC JUMP JUMPDEST PUSH1 0x40 MLOAD DUP1 SWAP2 SUB SWAP1 REVERT JUMPDEST PUSH1 0x0 JUMPDEST PUSH1 0x1 DUP1 SLOAD SWAP1 POP DUP2 LT ISZERO PUSH2 0x287 JUMPI PUSH1 0x0 PUSH1 0x1 DUP3 DUP2 SLOAD DUP2 LT PUSH2 0x201 JUMPI PUSH2 0x200 PUSH2 0x7EC JUMP JUMPDEST JUMPDEST SWAP1 PUSH1 0x0 MSTORE PUSH1 0x20 PUSH1 0x0 KECCAK256 ADD PUSH1 0x0 SWAP1 SLOAD SWAP1 PUSH2 0x100 EXP SWAP1 DIV PUSH20 0xFFFFFFFFFFFFFFFFFFFFFFFFFFFFFFFFFFFFFFFF AND SWAP1 POP PUSH1 0x0 PUSH1 0x2 PUSH1 0x0 DUP4 PUSH20 0xFFFFFFFFFFFFFFFFFFFFFFFFFFFFFFFFFFFFFFFF AND PUSH20 0xFFFFFFFFFFFFFFFFFFFFFFFFFFFFFFFFFFFFFFFF AND DUP2 MSTORE PUSH1 0x20 ADD SWAP1 DUP2 MSTORE PUSH1 0x20 ADD PUSH1 0x0 KECCAK256 DUP2 SWAP1 SSTORE POP POP DUP1 DUP1 PUSH2 0x27F SWAP1 PUSH2 0x84A JUMP JUMPDEST SWAP2 POP POP PUSH2 0x1DE JUMP JUMPDEST POP PUSH1 0x0 PUSH8 0xFFFFFFFFFFFFFFFF DUP2 GT ISZERO PUSH2 0x2A3 JUMPI PUSH2 0x2A2 PUSH2 0x893 JUMP JUMPDEST JUMPDEST PUSH1 0x40 MLOAD SWAP1 DUP1 DUP3 MSTORE DUP1 PUSH1 0x20 MUL PUSH1 0x20 ADD DUP3 ADD PUSH1 0x40 MSTORE DUP1 ISZERO PUSH2 0x2D1 JUMPI DUP2 PUSH1 0x20 ADD PUSH1 0x20 DUP3 MUL DUP1 CALLDATASIZE DUP4 CALLDATACOPY DUP1 DUP3 ADD SWAP2 POP POP SWAP1 POP JUMPDEST POP PUSH1 0x1 SWAP1 DUP1 MLOAD SWAP1 PUSH1 0x20 ADD SWAP1 PUSH2 0x2E7 SWAP3 SWAP2 SWAP1 PUSH2 0x581 JUMP JUMPDEST POP PUSH1 0x0 CALLER PUSH20 0xFFFFFFFFFFFFFFFFFFFFFFFFFFFFFFFFFFFFFFFF AND SELFBALANCE PUSH1 0x40 MLOAD PUSH2 0x30E SWAP1 PUSH2 0x8F3 JUMP JUMPDEST PUSH1 0x0 PUSH1 0x40 MLOAD DUP1 DUP4 SUB DUP2 DUP6 DUP8 GAS CALL SWAP3 POP POP POP RETURNDATASIZE DUP1 PUSH1 0x0 DUP2 EQ PUSH2 0x34B JUMPI PUSH1 0x40 MLOAD SWAP2 POP PUSH1 0x1F NOT PUSH1 0x3F RETURNDATASIZE ADD AND DUP3 ADD PUSH1 0x40 MSTORE RETURNDATASIZE DUP3 MSTORE RETURNDATASIZE PUSH1 0x0 PUSH1 0x20 DUP5 ADD RETURNDATACOPY PUSH2 0x350 JUMP JUMPDEST PUSH1 0x60 SWAP2 POP JUMPDEST POP POP SWAP1 POP DUP1 PUSH2 0x394 JUMPI PUSH1 0x40 MLOAD PUSH32 0x8C379A000000000000000000000000000000000000000000000000000000000 DUP2 MSTORE PUSH1 0x4 ADD PUSH2 0x38B SWAP1 PUSH2 0x954 JUMP JUMPDEST PUSH1 0x40 MLOAD DUP1 SWAP2 SUB SWAP1 REVERT JUMPDEST POP JUMP JUMPDEST PUSH1 0x2 PUSH1 0x20 MSTORE DUP1 PUSH1 0x0 MSTORE PUSH1 0x40 PUSH1 0x0 KECCAK256 PUSH1 0x0 SWAP2 POP SWAP1 POP SLOAD DUP2 JUMP JUMPDEST PUSH1 0x3 PUSH1 0x0 SWAP1 SLOAD SWAP1 PUSH2 0x100 EXP SWAP1 DIV PUSH20 0xFFFFFFFFFFFFFFFFFFFFFFFFFFFFFFFFFFFFFFFF AND DUP2 JUMP JUMPDEST PUSH1 0x0 SLOAD CALLVALUE PUSH20 0x0 PUSH4 0x6E5B6B28 SWAP1 SWAP2 PUSH1 0x40 MLOAD DUP3 PUSH4 0xFFFFFFFF AND PUSH1 0xE0 SHL DUP2 MSTORE PUSH1 0x4 ADD PUSH2 0x411 SWAP2 SWAP1 PUSH2 0x983 JUMP JUMPDEST PUSH1 0x20 PUSH1 0x40 MLOAD DUP1 DUP4 SUB DUP2 DUP7 GAS DELEGATECALL ISZERO DUP1 ISZERO PUSH2 0x42E JUMPI RETURNDATASIZE PUSH1 0x0 DUP1 RETURNDATACOPY RETURNDATASIZE PUSH1 0x0 REVERT JUMPDEST POP POP POP POP PUSH1 0x40 MLOAD RETURNDATASIZE PUSH1 0x1F NOT PUSH1 0x1F DUP3 ADD AND DUP3 ADD DUP1 PUSH1 0x40 MSTORE POP DUP2 ADD SWAP1 PUSH2 0x452 SWAP2 SWAP1 PUSH2 0x9B3 JUMP JUMPDEST LT ISZERO PUSH2 0x493 JUMPI PUSH1 0x40 MLOAD PUSH32 0x8C379A000000000000000000000000000000000000000000000000000000000 DUP2 MSTORE PUSH1 0x4 ADD PUSH2 0x48A SWAP1 PUSH2 0xA2C JUMP JUMPDEST PUSH1 0x40 MLOAD DUP1 SWAP2 SUB SWAP1 REVERT JUMPDEST PUSH1 0x1 CALLER SWAP1 DUP1 PUSH1 0x1 DUP2 SLOAD ADD DUP1 DUP3 SSTORE DUP1 SWAP2 POP POP PUSH1 0x1 SWAP1 SUB SWAP1 PUSH1 0x0 MSTORE PUSH1 0x20 PUSH1 0x0 KECCAK256 ADD PUSH1 0x0 SWAP1 SWAP2 SWAP1 SWAP2 SWAP1 SWAP2 PUSH2 0x100 EXP DUP2 SLOAD DUP2 PUSH20 0xFFFFFFFFFFFFFFFFFFFFFFFFFFFFFFFFFFFFFFFF MUL NOT AND SWAP1 DUP4 PUSH20 0xFFFFFFFFFFFFFFFFFFFFFFFFFFFFFFFFFFFFFFFF AND MUL OR SWAP1 SSTORE POP CALLVALUE PUSH1 0x2 PUSH1 0x0 CALLER PUSH20 0xFFFFFFFFFFFFFFFFFFFFFFFFFFFFFFFFFFFFFFFF AND PUSH20 0xFFFFFFFFFFFFFFFFFFFFFFFFFFFFFFFFFFFFFFFF AND DUP2 MSTORE PUSH1 0x20 ADD SWAP1 DUP2 MSTORE PUSH1 0x20 ADD PUSH1 0x0 KECCAK256 DUP2 SWAP1 SSTORE POP JUMP JUMPDEST PUSH1 0x1 DUP2 DUP2 SLOAD DUP2 LT PUSH2 0x54C JUMPI PUSH1 0x0 DUP1 REVERT JUMPDEST SWAP1 PUSH1 0x0 MSTORE PUSH1 0x20 PUSH1 0x0 KECCAK256 ADD PUSH1 0x0 SWAP2 POP SLOAD SWAP1 PUSH2 0x100 EXP SWAP1 DIV PUSH20 0xFFFFFFFFFFFFFFFFFFFFFFFFFFFFFFFFFFFFFFFF AND DUP2 JUMP JUMPDEST PUSH1 0x0 SLOAD DUP2 JUMP JUMPDEST DUP3 DUP1 SLOAD DUP3 DUP3 SSTORE SWAP1 PUSH1 0x0 MSTORE PUSH1 0x20 PUSH1 0x0 KECCAK256 SWAP1 DUP2 ADD SWAP3 DUP3 ISZERO PUSH2 0x5FA JUMPI SWAP2 PUSH1 0x20 MUL DUP3 ADD JUMPDEST DUP3 DUP2 GT ISZERO PUSH2 0x5F9 JUMPI DUP3 MLOAD DUP3 PUSH1 0x0 PUSH2 0x100 EXP DUP2 SLOAD DUP2 PUSH20 0xFFFFFFFFFFFFFFFFFFFFFFFFFFFFFFFFFFFFFFFF MUL NOT AND SWAP1 DUP4 PUSH20 0xFFFFFFFFFFFFFFFFFFFFFFFFFFFFFFFFFFFFFFFF AND MUL OR SWAP1 SSTORE POP SWAP2 PUSH1 0x20 ADD SWAP2 SWAP1 PUSH1 0x1 ADD SWAP1 PUSH2 0x5A1 JUMP JUMPDEST JUMPDEST POP SWAP1 POP PUSH2 0x607 SWAP2 SWAP1 PUSH2 0x60B JUMP JUMPDEST POP SWAP1 JUMP JUMPDEST JUMPDEST DUP1 DUP3 GT ISZERO PUSH2 0x624 JUMPI PUSH1 0x0 DUP2 PUSH1 0x0 SWAP1 SSTORE POP PUSH1 0x1 ADD PUSH2 0x60C JUMP JUMPDEST POP SWAP1 JUMP JUMPDEST PUSH1 0x0 DUP1 REVERT JUMPDEST PUSH1 0x0 PUSH20 0xFFFFFFFFFFFFFFFFFFFFFFFFFFFFFFFFFFFFFFFF DUP3 AND SWAP1 POP SWAP2 SWAP1 POP JUMP JUMPDEST PUSH1 0x0 PUSH2 0x658 DUP3 PUSH2 0x62D JUMP JUMPDEST SWAP1 POP SWAP2 SWAP1 POP JUMP JUMPDEST PUSH2 0x668 DUP2 PUSH2 0x64D JUMP JUMPDEST DUP2 EQ PUSH2 0x673 JUMPI PUSH1 0x0 DUP1 REVERT JUMPDEST POP JUMP JUMPDEST PUSH1 0x0 DUP2 CALLDATALOAD SWAP1 POP PUSH2 0x685 DUP2 PUSH2 0x65F JUMP JUMPDEST SWAP3 SWAP2 POP POP JUMP JUMPDEST PUSH1 0x0 PUSH1 0x20 DUP3 DUP5 SUB SLT ISZERO PUSH2 0x6A1 JUMPI PUSH2 0x6A0 PUSH2 0x628 JUMP JUMPDEST JUMPDEST PUSH1 0x0 PUSH2 0x6AF DUP5 DUP3 DUP6 ADD PUSH2 0x676 JUMP JUMPDEST SWAP2 POP POP SWAP3 SWAP2 POP POP JUMP JUMPDEST PUSH1 0x0 DUP2 SWAP1 POP SWAP2 SWAP1 POP JUMP JUMPDEST PUSH2 0x6CB DUP2 PUSH2 0x6B8 JUMP JUMPDEST DUP3 MSTORE POP POP JUMP JUMPDEST PUSH1 0x0 PUSH1 0x20 DUP3 ADD SWAP1 POP PUSH2 0x6E6 PUSH1 0x0 DUP4 ADD DUP5 PUSH2 0x6C2 JUMP JUMPDEST SWAP3 SWAP2 POP POP JUMP JUMPDEST PUSH2 0x6F5 DUP2 PUSH2 0x64D JUMP JUMPDEST DUP3 MSTORE POP POP JUMP JUMPDEST PUSH1 0x0 PUSH1 0x20 DUP3 ADD SWAP1 POP PUSH2 0x710 PUSH1 0x0 DUP4 ADD DUP5 PUSH2 0x6EC JUMP JUMPDEST SWAP3 SWAP2 POP POP JUMP JUMPDEST PUSH2 0x71F DUP2 PUSH2 0x6B8 JUMP JUMPDEST DUP2 EQ PUSH2 0x72A JUMPI PUSH1 0x0 DUP1 REVERT JUMPDEST POP JUMP JUMPDEST PUSH1 0x0 DUP2 CALLDATALOAD SWAP1 POP PUSH2 0x73C DUP2 PUSH2 0x716 JUMP JUMPDEST SWAP3 SWAP2 POP POP JUMP JUMPDEST PUSH1 0x0 PUSH1 0x20 DUP3 DUP5 SUB SLT ISZERO PUSH2 0x758 JUMPI PUSH2 0x757 PUSH2 0x628 JUMP JUMPDEST JUMPDEST PUSH1 0x0 PUSH2 0x766 DUP5 DUP3 DUP6 ADD PUSH2 0x72D JUMP JUMPDEST SWAP2 POP POP SWAP3 SWAP2 POP POP JUMP JUMPDEST PUSH1 0x0 DUP3 DUP3 MSTORE PUSH1 0x20 DUP3 ADD SWAP1 POP SWAP3 SWAP2 POP POP JUMP JUMPDEST PUSH32 0x53656E646572206973206E6F74206F776E657200000000000000000000000000 PUSH1 0x0 DUP3 ADD MSTORE POP JUMP JUMPDEST PUSH1 0x0 PUSH2 0x7B6 PUSH1 0x13 DUP4 PUSH2 0x76F JUMP JUMPDEST SWAP2 POP PUSH2 0x7C1 DUP3 PUSH2 0x780 JUMP JUMPDEST PUSH1 0x20 DUP3 ADD SWAP1 POP SWAP2 SWAP1 POP JUMP JUMPDEST PUSH1 0x0 PUSH1 0x20 DUP3 ADD SWAP1 POP DUP2 DUP2 SUB PUSH1 0x0 DUP4 ADD MSTORE PUSH2 0x7E5 DUP2 PUSH2 0x7A9 JUMP JUMPDEST SWAP1 POP SWAP2 SWAP1 POP JUMP JUMPDEST PUSH32 0x4E487B7100000000000000000000000000000000000000000000000000000000 PUSH1 0x0 MSTORE PUSH1 0x32 PUSH1 0x4 MSTORE PUSH1 0x24 PUSH1 0x0 REVERT JUMPDEST PUSH32 0x4E487B7100000000000000000000000000000000000000000000000000000000 PUSH1 0x0 MSTORE PUSH1 0x11 PUSH1 0x4 MSTORE PUSH1 0x24 PUSH1 0x0 REVERT JUMPDEST PUSH1 0x0 PUSH2 0x855 DUP3 PUSH2 0x6B8 JUMP JUMPDEST SWAP2 POP PUSH32 0xFFFFFFFFFFFFFFFFFFFFFFFFFFFFFFFFFFFFFFFFFFFFFFFFFFFFFFFFFFFFFFFF DUP3 EQ ISZERO PUSH2 0x888 JUMPI PUSH2 0x887 PUSH2 0x81B JUMP JUMPDEST JUMPDEST PUSH1 0x1 DUP3 ADD SWAP1 POP SWAP2 SWAP1 POP JUMP JUMPDEST PUSH32 0x4E487B7100000000000000000000000000000000000000000000000000000000 PUSH1 0x0 MSTORE PUSH1 0x41 PUSH1 0x4 MSTORE PUSH1 0x24 PUSH1 0x0 REVERT JUMPDEST PUSH1 0x0 DUP2 SWAP1 POP SWAP3 SWAP2 POP POP JUMP JUMPDEST POP JUMP JUMPDEST PUSH1 0x0 PUSH2 0x8DD PUSH1 0x0 DUP4 PUSH2 0x8C2 JUMP JUMPDEST SWAP2 POP PUSH2 0x8E8 DUP3 PUSH2 0x8CD JUMP JUMPDEST PUSH1 0x0 DUP3 ADD SWAP1 POP SWAP2 SWAP1 POP JUMP JUMPDEST PUSH1 0x0 PUSH2 0x8FE DUP3 PUSH2 0x8D0 JUMP JUMPDEST SWAP2 POP DUP2 SWAP1 POP SWAP2 SWAP1 POP JUMP JUMPDEST PUSH32 0x43616C6C204661696C6564000000000000000000000000000000000000000000 PUSH1 0x0 DUP3 ADD MSTORE POP JUMP JUMPDEST PUSH1 0x0 PUSH2 0x93E PUSH1 0xB DUP4 PUSH2 0x76F JUMP JUMPDEST SWAP2 POP PUSH2 0x949 DUP3 PUSH2 0x908 JUMP JUMPDEST PUSH1 0x20 DUP3 ADD SWAP1 POP SWAP2 SWAP1 POP JUMP JUMPDEST PUSH1 0x0 PUSH1 0x20 DUP3 ADD SWAP1 POP DUP2 DUP2 SUB PUSH1 0x0 DUP4 ADD MSTORE PUSH2 0x96D DUP2 PUSH2 0x931 JUMP JUMPDEST SWAP1 POP SWAP2 SWAP1 POP JUMP JUMPDEST PUSH2 0x97D DUP2 PUSH2 0x6B8 JUMP JUMPDEST DUP3 MSTORE POP POP JUMP JUMPDEST PUSH1 0x0 PUSH1 0x20 DUP3 ADD SWAP1 POP PUSH2 0x998 PUSH1 0x0 DUP4 ADD DUP5 PUSH2 0x974 JUMP JUMPDEST SWAP3 SWAP2 POP POP JUMP JUMPDEST PUSH1 0x0 DUP2 MLOAD SWAP1 POP PUSH2 0x9AD DUP2 PUSH2 0x716 JUMP JUMPDEST SWAP3 SWAP2 POP POP JUMP JUMPDEST PUSH1 0x0 PUSH1 0x20 DUP3 DUP5 SUB SLT ISZERO PUSH2 0x9C9 JUMPI PUSH2 0x9C8 PUSH2 0x628 JUMP JUMPDEST JUMPDEST PUSH1 0x0 PUSH2 0x9D7 DUP5 DUP3 DUP6 ADD PUSH2 0x99E JUMP JUMPDEST SWAP2 POP POP SWAP3 SWAP2 POP POP JUMP JUMPDEST PUSH32 0x4E6F7420656E6F75676820455448000000000000000000000000000000000000 PUSH1 0x0 DUP3 ADD MSTORE POP JUMP JUMPDEST PUSH1 0x0 PUSH2 0xA16 PUSH1 0xE DUP4 PUSH2 0x76F JUMP JUMPDEST SWAP2 POP PUSH2 0xA21 DUP3 PUSH2 0x9E0 JUMP JUMPDEST PUSH1 0x20 DUP3 ADD SWAP1 POP SWAP2 SWAP1 POP JUMP JUMPDEST PUSH1 0x0 PUSH1 0x20 DUP3 ADD SWAP1 POP DUP2 DUP2 SUB PUSH1 0x0 DUP4 ADD MSTORE PUSH2 0xA45 DUP2 PUSH2 0xA09 JUMP JUMPDEST SWAP1 POP SWAP2 SWAP1 POP JUMP INVALID LOG2 PUSH5 0x6970667358 0x22 SLT KECCAK256 0xA5 CALLER STATICCALL ISZERO PUSH25 0x3C866D94D52EDA04CB3A5C0C10CF9AF3812D896A1DF9545FA3 DUP4 CALLDATASIZE PUSH5 0x736F6C6343 STOP ADDMOD EXP STOP CALLER "
				},
				"gasEstimates": {
					"creation": {
						"codeDepositCost": "538000",
						"executionCost": "46947",
						"totalCost": "584947"
					},
					"external": {
						"addressToAmoundFunded(address)": "2814",
						"fund()": "infinite",
						"funders(uint256)": "5022",
						"minUSD()": "2517",
						"owner()": "2536",
						"withdraw()": "infinite"
					}
				},
				"methodIdentifiers": {
					"addressToAmoundFunded(address)": "6a11f733",
					"fund()": "b60d4288",
					"funders(uint256)": "dc0d3dff",
					"minUSD()": "dc992aa0",
					"owner()": "8da5cb5b",
					"withdraw()": "3ccfd60b"
				}
			},
			"storageLayout": {
				"storage": [
					{
						"astId": 58,
						"contract": "contract/FundMe.sol:FundMe",
						"label": "minUSD",
						"offset": 0,
						"slot": "0",
						"type": "t_uint256"
					},
					{
						"astId": 61,
						"contract": "contract/FundMe.sol:FundMe",
						"label": "funders",
						"offset": 0,
						"slot": "1",
						"type": "t_array(t_address)dyn_storage"
					},
					{
						"astId": 65,
						"contract": "contract/FundMe.sol:FundMe",
						"label": "addressToAmoundFunded",
						"offset": 0,
						"slot": "2",
						"type": "t_mapping(t_address,t_uint256)"
					},
					{
						"astId": 67,
						"contract": "contract/FundMe.sol:FundMe",
						"label": "owner",
						"offset": 0,
						"slot": "3",
						"type": "t_address"
					}
				],
				"types": {
					"t_address": {
						"encoding": "inplace",
						"label": "address",
						"numberOfBytes": "20"
					},
					"t_array(t_address)dyn_storage": {
						"base": "t_address",
						"encoding": "dynamic_array",
						"label": "address[]",
						"numberOfBytes": "32"
					},
					"t_mapping(t_address,t_uint256)": {
						"encoding": "mapping",
						"key": "t_address",
						"label": "mapping(address => uint256)",
						"numberOfBytes": "32",
						"value": "t_uint256"
					},
					"t_uint256": {
						"encoding": "inplace",
						"label": "uint256",
						"numberOfBytes": "32"
					}
				}
			},
			"userdoc": {
				"kind": "user",
				"methods": {},
				"version": 1
			}
		}
	}
}